{
    "_format": "hh-sol-artifact-1",
    "contractName": "JackOLantern",
    "sourceName": "contracts/JackOLantern.sol",
    "abi": [
        {
            "inputs": [],
            "stateMutability": "nonpayable",
            "type": "constructor"
        },
        {
            "anonymous": false,
            "inputs": [
                {
                    "indexed": true,
                    "internalType": "address",
                    "name": "owner",
                    "type": "address"
                },
                {
                    "indexed": true,
                    "internalType": "address",
                    "name": "approved",
                    "type": "address"
                },
                {
                    "indexed": true,
                    "internalType": "uint256",
                    "name": "tokenId",
                    "type": "uint256"
                }
            ],
            "name": "Approval",
            "type": "event"
        },
        {
            "anonymous": false,
            "inputs": [
                {
                    "indexed": true,
                    "internalType": "address",
                    "name": "owner",
                    "type": "address"
                },
                {
                    "indexed": true,
                    "internalType": "address",
                    "name": "operator",
                    "type": "address"
                },
                {
                    "indexed": false,
                    "internalType": "bool",
                    "name": "approved",
                    "type": "bool"
                }
            ],
            "name": "ApprovalForAll",
            "type": "event"
        },
        {
            "anonymous": false,
            "inputs": [
                {
                    "indexed": true,
                    "internalType": "address",
                    "name": "from",
                    "type": "address"
                },
                {
                    "indexed": true,
                    "internalType": "address",
                    "name": "to",
                    "type": "address"
                },
                {
                    "indexed": true,
                    "internalType": "uint256",
                    "name": "tokenId",
                    "type": "uint256"
                }
            ],
            "name": "Transfer",
            "type": "event"
        },
        {
            "inputs": [
                {
                    "internalType": "address",
                    "name": "to",
                    "type": "address"
                },
                {
                    "internalType": "uint256",
                    "name": "tokenId",
                    "type": "uint256"
                }
            ],
            "name": "approve",
            "outputs": [],
            "stateMutability": "nonpayable",
            "type": "function"
        },
        {
            "inputs": [
                {
                    "internalType": "address",
                    "name": "owner",
                    "type": "address"
                }
            ],
            "name": "balanceOf",
            "outputs": [
                {
                    "internalType": "uint256",
                    "name": "",
                    "type": "uint256"
                }
            ],
            "stateMutability": "view",
            "type": "function"
        },
        {
            "inputs": [
                {
                    "internalType": "uint256",
                    "name": "tokenId",
                    "type": "uint256"
                }
            ],
            "name": "getApproved",
            "outputs": [
                {
                    "internalType": "address",
                    "name": "",
                    "type": "address"
                }
            ],
            "stateMutability": "view",
            "type": "function"
        },
        {
            "inputs": [
                {
                    "internalType": "address",
                    "name": "owner",
                    "type": "address"
                },
                {
                    "internalType": "address",
                    "name": "operator",
                    "type": "address"
                }
            ],
            "name": "isApprovedForAll",
            "outputs": [
                {
                    "internalType": "bool",
                    "name": "",
                    "type": "bool"
                }
            ],
            "stateMutability": "view",
            "type": "function"
        },
        {
            "inputs": [
                {
                    "internalType": "address",
                    "name": "player",
                    "type": "address"
                },
                {
                    "internalType": "string",
                    "name": "tokenURI",
                    "type": "string"
                }
            ],
            "name": "mintItem",
            "outputs": [
                {
                    "internalType": "uint256",
                    "name": "",
                    "type": "uint256"
                }
            ],
            "stateMutability": "nonpayable",
            "type": "function"
        },
        {
            "inputs": [],
            "name": "name",
            "outputs": [
                {
                    "internalType": "string",
                    "name": "",
                    "type": "string"
                }
            ],
            "stateMutability": "view",
            "type": "function"
        },
        {
            "inputs": [
                {
                    "internalType": "uint256",
                    "name": "tokenId",
                    "type": "uint256"
                }
            ],
            "name": "ownerOf",
            "outputs": [
                {
                    "internalType": "address",
                    "name": "",
                    "type": "address"
                }
            ],
            "stateMutability": "view",
            "type": "function"
        },
        {
            "inputs": [
                {
                    "internalType": "address",
                    "name": "from",
                    "type": "address"
                },
                {
                    "internalType": "address",
                    "name": "to",
                    "type": "address"
                },
                {
                    "internalType": "uint256",
                    "name": "tokenId",
                    "type": "uint256"
                }
            ],
            "name": "safeTransferFrom",
            "outputs": [],
            "stateMutability": "nonpayable",
            "type": "function"
        },
        {
            "inputs": [
                {
                    "internalType": "address",
                    "name": "from",
                    "type": "address"
                },
                {
                    "internalType": "address",
                    "name": "to",
                    "type": "address"
                },
                {
                    "internalType": "uint256",
                    "name": "tokenId",
                    "type": "uint256"
                },
                {
                    "internalType": "bytes",
                    "name": "_data",
                    "type": "bytes"
                }
            ],
            "name": "safeTransferFrom",
            "outputs": [],
            "stateMutability": "nonpayable",
            "type": "function"
        },
        {
            "inputs": [
                {
                    "internalType": "address",
                    "name": "operator",
                    "type": "address"
                },
                {
                    "internalType": "bool",
                    "name": "approved",
                    "type": "bool"
                }
            ],
            "name": "setApprovalForAll",
            "outputs": [],
            "stateMutability": "nonpayable",
            "type": "function"
        },
        {
            "inputs": [
                {
                    "internalType": "bytes4",
                    "name": "interfaceId",
                    "type": "bytes4"
                }
            ],
            "name": "supportsInterface",
            "outputs": [
                {
                    "internalType": "bool",
                    "name": "",
                    "type": "bool"
                }
            ],
            "stateMutability": "view",
            "type": "function"
        },
        {
            "inputs": [],
            "name": "symbol",
            "outputs": [
                {
                    "internalType": "string",
                    "name": "",
                    "type": "string"
                }
            ],
            "stateMutability": "view",
            "type": "function"
        },
        {
            "inputs": [
                {
                    "internalType": "uint256",
                    "name": "tokenId",
                    "type": "uint256"
                }
            ],
            "name": "tokenURI",
            "outputs": [
                {
                    "internalType": "string",
                    "name": "",
                    "type": "string"
                }
            ],
            "stateMutability": "view",
            "type": "function"
        },
        {
            "inputs": [
                {
                    "internalType": "address",
                    "name": "from",
                    "type": "address"
                },
                {
                    "internalType": "address",
                    "name": "to",
                    "type": "address"
                },
                {
                    "internalType": "uint256",
                    "name": "tokenId",
                    "type": "uint256"
                }
            ],
            "name": "transferFrom",
            "outputs": [],
            "stateMutability": "nonpayable",
            "type": "function"
        }
    ],
    "bytecode": "0x60806040523480156200001157600080fd5b50604080518082018252600f81526e2530b1b596a79396a630b73a32b93760891b6020808301918252835180850190945260048452634a41434b60e01b908401528151919291620000659160009162000084565b5080516200007b90600190602084019062000084565b50505062000167565b82805462000092906200012a565b90600052602060002090601f016020900481019282620000b6576000855562000101565b82601f10620000d157805160ff191683800117855562000101565b8280016001018555821562000101579182015b8281111562000101578251825591602001919060010190620000e4565b506200010f92915062000113565b5090565b5b808211156200010f576000815560010162000114565b600181811c908216806200013f57607f821691505b602082108114156200016157634e487b7160e01b600052602260045260246000fd5b50919050565b6116d780620001776000396000f3fe608060405234801561001057600080fd5b50600436106100ea5760003560e01c80636352211e1161008c578063a22cb46511610066578063a22cb465146101e1578063b88d4fde146101f4578063c87b56dd14610207578063e985e9c51461021a57600080fd5b80636352211e146101b357806370a08231146101c657806395d89b41146101d957600080fd5b8063095ea7b3116100c8578063095ea7b314610157578063110bcd451461016c57806323b872dd1461018d57806342842e0e146101a057600080fd5b806301ffc9a7146100ef57806306fdde0314610117578063081812fc1461012c575b600080fd5b6101026100fd3660046113cf565b610256565b60405190151581526020015b60405180910390f35b61011f6102a8565b60405161010e91906114b7565b61013f61013a366004611407565b61033a565b6040516001600160a01b03909116815260200161010e565b61016a6101653660046113a6565b6103c7565b005b61017f61017a366004611347565b6104dd565b60405190815260200161010e565b61016a61019b366004611259565b610515565b61016a6101ae366004611259565b610546565b61013f6101c1366004611407565b610561565b61017f6101d436600461120d565b6105d8565b61011f61065f565b61016a6101ef36600461130d565b61066e565b61016a610202366004611294565b610733565b61011f610215366004611407565b61076b565b610102610228366004611227565b6001600160a01b03918216600090815260056020908152604080832093909416825291909152205460ff1690565b60006001600160e01b031982166380ac58cd60e01b148061028757506001600160e01b03198216635b5e139f60e01b145b806102a257506301ffc9a760e01b6001600160e01b03198316145b92915050565b6060600080546102b7906115dc565b80601f01602080910402602001604051908101604052809291908181526020018280546102e3906115dc565b80156103305780601f1061030557610100808354040283529160200191610330565b820191906000526020600020905b81548152906001019060200180831161031357829003601f168201915b5050505050905090565b6000610345826108e2565b6103ab5760405162461bcd60e51b815260206004820152602c60248201527f4552433732313a20617070726f76656420717565727920666f72206e6f6e657860448201526b34b9ba32b73a103a37b5b2b760a11b60648201526084015b60405180910390fd5b506000908152600460205260409020546001600160a01b031690565b60006103d282610561565b9050806001600160a01b0316836001600160a01b031614156104405760405162461bcd60e51b815260206004820152602160248201527f4552433732313a20617070726f76616c20746f2063757272656e74206f776e656044820152603960f91b60648201526084016103a2565b336001600160a01b038216148061045c575061045c8133610228565b6104ce5760405162461bcd60e51b815260206004820152603860248201527f4552433732313a20617070726f76652063616c6c6572206973206e6f74206f7760448201527f6e6572206e6f7220617070726f76656420666f7220616c6c000000000000000060648201526084016103a2565b6104d883836108ff565b505050565b60006104ed600780546001019055565b60006104f860075490565b9050610504848261096d565b61050e8184610aa0565b9392505050565b61051f3382610b2b565b61053b5760405162461bcd60e51b81526004016103a29061151c565b6104d8838383610c11565b6104d883838360405180602001604052806000815250610733565b6000818152600260205260408120546001600160a01b0316806102a25760405162461bcd60e51b815260206004820152602960248201527f4552433732313a206f776e657220717565727920666f72206e6f6e657869737460448201526832b73a103a37b5b2b760b91b60648201526084016103a2565b60006001600160a01b0382166106435760405162461bcd60e51b815260206004820152602a60248201527f4552433732313a2062616c616e636520717565727920666f7220746865207a65604482015269726f206164647265737360b01b60648201526084016103a2565b506001600160a01b031660009081526003602052604090205490565b6060600180546102b7906115dc565b6001600160a01b0382163314156106c75760405162461bcd60e51b815260206004820152601960248201527f4552433732313a20617070726f766520746f2063616c6c65720000000000000060448201526064016103a2565b3360008181526005602090815260408083206001600160a01b03871680855290835292819020805460ff191686151590811790915590519081529192917f17307eab39ab6107e8899845ad3d59bd9653f200f220920489ca2b5937696c31910160405180910390a35050565b61073d3383610b2b565b6107595760405162461bcd60e51b81526004016103a29061151c565b61076584848484610db1565b50505050565b6060610776826108e2565b6107dc5760405162461bcd60e51b815260206004820152603160248201527f45524337323155524953746f726167653a2055524920717565727920666f72206044820152703737b732bc34b9ba32b73a103a37b5b2b760791b60648201526084016103a2565b600082815260066020526040812080546107f5906115dc565b80601f0160208091040260200160405190810160405280929190818152602001828054610821906115dc565b801561086e5780601f106108435761010080835404028352916020019161086e565b820191906000526020600020905b81548152906001019060200180831161085157829003601f168201915b50505050509050600061088c60408051602081019091526000815290565b905080516000141561089f575092915050565b8151156108d15780826040516020016108b992919061144b565b60405160208183030381529060405292505050919050565b6108da84610de4565b949350505050565b6000908152600260205260409020546001600160a01b0316151590565b600081815260046020526040902080546001600160a01b0319166001600160a01b038416908117909155819061093482610561565b6001600160a01b03167f8c5be1e5ebec7d5bd14f71427d1e84f3dd0314c0f7b2291e5b200ac8c7c3b92560405160405180910390a45050565b6001600160a01b0382166109c35760405162461bcd60e51b815260206004820181905260248201527f4552433732313a206d696e7420746f20746865207a65726f206164647265737360448201526064016103a2565b6109cc816108e2565b15610a195760405162461bcd60e51b815260206004820152601c60248201527f4552433732313a20746f6b656e20616c7265616479206d696e7465640000000060448201526064016103a2565b6001600160a01b0382166000908152600360205260408120805460019290610a4290849061156d565b909155505060008181526002602052604080822080546001600160a01b0319166001600160a01b03861690811790915590518392907fddf252ad1be2c89b69c2b068fc378daa952ba7f163c4a11628f55a4df523b3ef908290a45050565b610aa9826108e2565b610b0c5760405162461bcd60e51b815260206004820152602e60248201527f45524337323155524953746f726167653a2055524920736574206f66206e6f6e60448201526d32bc34b9ba32b73a103a37b5b2b760911b60648201526084016103a2565b600082815260066020908152604090912082516104d8928401906110e2565b6000610b36826108e2565b610b975760405162461bcd60e51b815260206004820152602c60248201527f4552433732313a206f70657261746f7220717565727920666f72206e6f6e657860448201526b34b9ba32b73a103a37b5b2b760a11b60648201526084016103a2565b6000610ba283610561565b9050806001600160a01b0316846001600160a01b03161480610bdd5750836001600160a01b0316610bd28461033a565b6001600160a01b0316145b806108da57506001600160a01b0380821660009081526005602090815260408083209388168352929052205460ff166108da565b826001600160a01b0316610c2482610561565b6001600160a01b031614610c8c5760405162461bcd60e51b815260206004820152602960248201527f4552433732313a207472616e73666572206f6620746f6b656e2074686174206960448201526839903737ba1037bbb760b91b60648201526084016103a2565b6001600160a01b038216610cee5760405162461bcd60e51b8152602060048201526024808201527f4552433732313a207472616e7366657220746f20746865207a65726f206164646044820152637265737360e01b60648201526084016103a2565b610cf96000826108ff565b6001600160a01b0383166000908152600360205260408120805460019290610d22908490611599565b90915550506001600160a01b0382166000908152600360205260408120805460019290610d5090849061156d565b909155505060008181526002602052604080822080546001600160a01b0319166001600160a01b0386811691821790925591518493918716917fddf252ad1be2c89b69c2b068fc378daa952ba7f163c4a11628f55a4df523b3ef91a4505050565b610dbc848484610c11565b610dc884848484610ebb565b6107655760405162461bcd60e51b81526004016103a2906114ca565b6060610def826108e2565b610e535760405162461bcd60e51b815260206004820152602f60248201527f4552433732314d657461646174613a2055524920717565727920666f72206e6f60448201526e3732bc34b9ba32b73a103a37b5b2b760891b60648201526084016103a2565b6000610e6a60408051602081019091526000815290565b90506000815111610e8a576040518060200160405280600081525061050e565b80610e9484610fc8565b604051602001610ea592919061144b565b6040516020818303038152906040529392505050565b60006001600160a01b0384163b15610fbd57604051630a85bd0160e11b81526001600160a01b0385169063150b7a0290610eff90339089908890889060040161147a565b602060405180830381600087803b158015610f1957600080fd5b505af1925050508015610f49575060408051601f3d908101601f19168201909252610f46918101906113eb565b60015b610fa3573d808015610f77576040519150601f19603f3d011682016040523d82523d6000602084013e610f7c565b606091505b508051610f9b5760405162461bcd60e51b81526004016103a2906114ca565b805181602001fd5b6001600160e01b031916630a85bd0160e11b1490506108da565b506001949350505050565b606081610fec5750506040805180820190915260018152600360fc1b602082015290565b8160005b8115611016578061100081611617565b915061100f9050600a83611585565b9150610ff0565b60008167ffffffffffffffff81111561103f57634e487b7160e01b600052604160045260246000fd5b6040519080825280601f01601f191660200182016040528015611069576020820181803683370190505b5090505b84156108da5761107e600183611599565b915061108b600a86611632565b61109690603061156d565b60f81b8183815181106110b957634e487b7160e01b600052603260045260246000fd5b60200101906001600160f81b031916908160001a9053506110db600a86611585565b945061106d565b8280546110ee906115dc565b90600052602060002090601f0160209004810192826111105760008555611156565b82601f1061112957805160ff1916838001178555611156565b82800160010185558215611156579182015b8281111561115657825182559160200191906001019061113b565b50611162929150611166565b5090565b5b808211156111625760008155600101611167565b600067ffffffffffffffff8084111561119657611196611672565b604051601f8501601f19908116603f011681019082821181831017156111be576111be611672565b816040528093508581528686860111156111d757600080fd5b858560208301376000602087830101525050509392505050565b80356001600160a01b038116811461120857600080fd5b919050565b60006020828403121561121e578081fd5b61050e826111f1565b60008060408385031215611239578081fd5b611242836111f1565b9150611250602084016111f1565b90509250929050565b60008060006060848603121561126d578081fd5b611276846111f1565b9250611284602085016111f1565b9150604084013590509250925092565b600080600080608085870312156112a9578081fd5b6112b2856111f1565b93506112c0602086016111f1565b925060408501359150606085013567ffffffffffffffff8111156112e2578182fd5b8501601f810187136112f2578182fd5b6113018782356020840161117b565b91505092959194509250565b6000806040838503121561131f578182fd5b611328836111f1565b91506020830135801515811461133c578182fd5b809150509250929050565b60008060408385031215611359578182fd5b611362836111f1565b9150602083013567ffffffffffffffff81111561137d578182fd5b8301601f8101851361138d578182fd5b61139c8582356020840161117b565b9150509250929050565b600080604083850312156113b8578182fd5b6113c1836111f1565b946020939093013593505050565b6000602082840312156113e0578081fd5b813561050e81611688565b6000602082840312156113fc578081fd5b815161050e81611688565b600060208284031215611418578081fd5b5035919050565b600081518084526114378160208601602086016115b0565b601f01601f19169290920160200192915050565b6000835161145d8184602088016115b0565b8351908301906114718183602088016115b0565b01949350505050565b6001600160a01b03858116825284166020820152604081018390526080606082018190526000906114ad9083018461141f565b9695505050505050565b60208152600061050e602083018461141f565b60208082526032908201527f4552433732313a207472616e7366657220746f206e6f6e20455243373231526560408201527131b2b4bb32b91034b6b83632b6b2b73a32b960711b606082015260800190565b60208082526031908201527f4552433732313a207472616e736665722063616c6c6572206973206e6f74206f6040820152701ddb995c881b9bdc88185c1c1c9bdd9959607a1b606082015260800190565b6000821982111561158057611580611646565b500190565b6000826115945761159461165c565b500490565b6000828210156115ab576115ab611646565b500390565b60005b838110156115cb5781810151838201526020016115b3565b838111156107655750506000910152565b600181811c908216806115f057607f821691505b6020821081141561161157634e487b7160e01b600052602260045260246000fd5b50919050565b600060001982141561162b5761162b611646565b5060010190565b6000826116415761164161165c565b500690565b634e487b7160e01b600052601160045260246000fd5b634e487b7160e01b600052601260045260246000fd5b634e487b7160e01b600052604160045260246000fd5b6001600160e01b03198116811461169e57600080fd5b5056fea2646970667358221220494012295cd9111e2d2c6dd89e38cad9ae16cc8754d810ed3e8a921919d614b864736f6c63430008040033",
    "linkReferences": {},
    "deployedLinkReferences": {}
}