{
    "_format": "hh-sol-artifact-1",
    "contractName": "JackOLantern",
    "sourceName": "contracts/JackOLantern.sol",
    "abi": [
        {
            "inputs": [],
            "stateMutability": "nonpayable",
            "type": "constructor"
        },
        {
            "anonymous": false,
            "inputs": [
                {
                    "indexed": true,
                    "internalType": "address",
                    "name": "owner",
                    "type": "address"
                },
                {
                    "indexed": true,
                    "internalType": "address",
                    "name": "approved",
                    "type": "address"
                },
                {
                    "indexed": true,
                    "internalType": "uint256",
                    "name": "tokenId",
                    "type": "uint256"
                }
            ],
            "name": "Approval",
            "type": "event"
        },
        {
            "anonymous": false,
            "inputs": [
                {
                    "indexed": true,
                    "internalType": "address",
                    "name": "owner",
                    "type": "address"
                },
                {
                    "indexed": true,
                    "internalType": "address",
                    "name": "operator",
                    "type": "address"
                },
                {
                    "indexed": false,
                    "internalType": "bool",
                    "name": "approved",
                    "type": "bool"
                }
            ],
            "name": "ApprovalForAll",
            "type": "event"
        },
        {
            "anonymous": false,
            "inputs": [
                {
                    "indexed": true,
                    "internalType": "bytes32",
                    "name": "role",
                    "type": "bytes32"
                },
                {
                    "indexed": true,
                    "internalType": "bytes32",
                    "name": "previousAdminRole",
                    "type": "bytes32"
                },
                {
                    "indexed": true,
                    "internalType": "bytes32",
                    "name": "newAdminRole",
                    "type": "bytes32"
                }
            ],
            "name": "RoleAdminChanged",
            "type": "event"
        },
        {
            "anonymous": false,
            "inputs": [
                {
                    "indexed": true,
                    "internalType": "bytes32",
                    "name": "role",
                    "type": "bytes32"
                },
                {
                    "indexed": true,
                    "internalType": "address",
                    "name": "account",
                    "type": "address"
                },
                {
                    "indexed": true,
                    "internalType": "address",
                    "name": "sender",
                    "type": "address"
                }
            ],
            "name": "RoleGranted",
            "type": "event"
        },
        {
            "anonymous": false,
            "inputs": [
                {
                    "indexed": true,
                    "internalType": "bytes32",
                    "name": "role",
                    "type": "bytes32"
                },
                {
                    "indexed": true,
                    "internalType": "address",
                    "name": "account",
                    "type": "address"
                },
                {
                    "indexed": true,
                    "internalType": "address",
                    "name": "sender",
                    "type": "address"
                }
            ],
            "name": "RoleRevoked",
            "type": "event"
        },
        {
            "anonymous": false,
            "inputs": [
                {
                    "indexed": true,
                    "internalType": "address",
                    "name": "from",
                    "type": "address"
                },
                {
                    "indexed": true,
                    "internalType": "address",
                    "name": "to",
                    "type": "address"
                },
                {
                    "indexed": true,
                    "internalType": "uint256",
                    "name": "tokenId",
                    "type": "uint256"
                }
            ],
            "name": "Transfer",
            "type": "event"
        },
        {
            "inputs": [],
            "name": "DEFAULT_ADMIN_ROLE",
            "outputs": [
                {
                    "internalType": "bytes32",
                    "name": "",
                    "type": "bytes32"
                }
            ],
            "stateMutability": "view",
            "type": "function"
        },
        {
            "inputs": [],
            "name": "MINTER_ROLE",
            "outputs": [
                {
                    "internalType": "bytes32",
                    "name": "",
                    "type": "bytes32"
                }
            ],
            "stateMutability": "view",
            "type": "function"
        },
        {
            "inputs": [
                {
                    "internalType": "address",
                    "name": "to",
                    "type": "address"
                },
                {
                    "internalType": "uint256",
                    "name": "tokenId",
                    "type": "uint256"
                }
            ],
            "name": "approve",
            "outputs": [],
            "stateMutability": "nonpayable",
            "type": "function"
        },
        {
            "inputs": [
                {
                    "internalType": "address",
                    "name": "owner",
                    "type": "address"
                }
            ],
            "name": "balanceOf",
            "outputs": [
                {
                    "internalType": "uint256",
                    "name": "",
                    "type": "uint256"
                }
            ],
            "stateMutability": "view",
            "type": "function"
        },
        {
            "inputs": [
                {
                    "internalType": "uint256",
                    "name": "tokenId",
                    "type": "uint256"
                }
            ],
            "name": "getApproved",
            "outputs": [
                {
                    "internalType": "address",
                    "name": "",
                    "type": "address"
                }
            ],
            "stateMutability": "view",
            "type": "function"
        },
        {
            "inputs": [
                {
                    "internalType": "bytes32",
                    "name": "role",
                    "type": "bytes32"
                }
            ],
            "name": "getRoleAdmin",
            "outputs": [
                {
                    "internalType": "bytes32",
                    "name": "",
                    "type": "bytes32"
                }
            ],
            "stateMutability": "view",
            "type": "function"
        },
        {
            "inputs": [],
            "name": "getTotalSupply",
            "outputs": [
                {
                    "internalType": "uint256",
                    "name": "",
                    "type": "uint256"
                }
            ],
            "stateMutability": "view",
            "type": "function"
        },
        {
            "inputs": [
                {
                    "internalType": "bytes32",
                    "name": "role",
                    "type": "bytes32"
                },
                {
                    "internalType": "address",
                    "name": "account",
                    "type": "address"
                }
            ],
            "name": "grantRole",
            "outputs": [],
            "stateMutability": "nonpayable",
            "type": "function"
        },
        {
            "inputs": [
                {
                    "internalType": "bytes32",
                    "name": "role",
                    "type": "bytes32"
                },
                {
                    "internalType": "address",
                    "name": "account",
                    "type": "address"
                }
            ],
            "name": "hasRole",
            "outputs": [
                {
                    "internalType": "bool",
                    "name": "",
                    "type": "bool"
                }
            ],
            "stateMutability": "view",
            "type": "function"
        },
        {
            "inputs": [
                {
                    "internalType": "address",
                    "name": "owner",
                    "type": "address"
                },
                {
                    "internalType": "address",
                    "name": "operator",
                    "type": "address"
                }
            ],
            "name": "isApprovedForAll",
            "outputs": [
                {
                    "internalType": "bool",
                    "name": "",
                    "type": "bool"
                }
            ],
            "stateMutability": "view",
            "type": "function"
        },
        {
            "inputs": [
                {
                    "internalType": "address",
                    "name": "user",
                    "type": "address"
                },
                {
                    "internalType": "string",
                    "name": "_tokenURI",
                    "type": "string"
                }
            ],
            "name": "mintItem",
            "outputs": [
                {
                    "internalType": "uint256",
                    "name": "",
                    "type": "uint256"
                }
            ],
            "stateMutability": "nonpayable",
            "type": "function"
        },
        {
            "inputs": [],
            "name": "name",
            "outputs": [
                {
                    "internalType": "string",
                    "name": "",
                    "type": "string"
                }
            ],
            "stateMutability": "view",
            "type": "function"
        },
        {
            "inputs": [
                {
                    "internalType": "uint256",
                    "name": "tokenId",
                    "type": "uint256"
                }
            ],
            "name": "ownerOf",
            "outputs": [
                {
                    "internalType": "address",
                    "name": "",
                    "type": "address"
                }
            ],
            "stateMutability": "view",
            "type": "function"
        },
        {
            "inputs": [
                {
                    "internalType": "bytes32",
                    "name": "role",
                    "type": "bytes32"
                },
                {
                    "internalType": "address",
                    "name": "account",
                    "type": "address"
                }
            ],
            "name": "renounceRole",
            "outputs": [],
            "stateMutability": "nonpayable",
            "type": "function"
        },
        {
            "inputs": [
                {
                    "internalType": "bytes32",
                    "name": "role",
                    "type": "bytes32"
                },
                {
                    "internalType": "address",
                    "name": "account",
                    "type": "address"
                }
            ],
            "name": "revokeRole",
            "outputs": [],
            "stateMutability": "nonpayable",
            "type": "function"
        },
        {
            "inputs": [
                {
                    "internalType": "address",
                    "name": "to",
                    "type": "address"
                }
            ],
            "name": "safeMint",
            "outputs": [],
            "stateMutability": "nonpayable",
            "type": "function"
        },
        {
            "inputs": [
                {
                    "internalType": "address",
                    "name": "from",
                    "type": "address"
                },
                {
                    "internalType": "address",
                    "name": "to",
                    "type": "address"
                },
                {
                    "internalType": "uint256",
                    "name": "tokenId",
                    "type": "uint256"
                }
            ],
            "name": "safeTransferFrom",
            "outputs": [],
            "stateMutability": "nonpayable",
            "type": "function"
        },
        {
            "inputs": [
                {
                    "internalType": "address",
                    "name": "from",
                    "type": "address"
                },
                {
                    "internalType": "address",
                    "name": "to",
                    "type": "address"
                },
                {
                    "internalType": "uint256",
                    "name": "tokenId",
                    "type": "uint256"
                },
                {
                    "internalType": "bytes",
                    "name": "_data",
                    "type": "bytes"
                }
            ],
            "name": "safeTransferFrom",
            "outputs": [],
            "stateMutability": "nonpayable",
            "type": "function"
        },
        {
            "inputs": [
                {
                    "internalType": "address",
                    "name": "operator",
                    "type": "address"
                },
                {
                    "internalType": "bool",
                    "name": "approved",
                    "type": "bool"
                }
            ],
            "name": "setApprovalForAll",
            "outputs": [],
            "stateMutability": "nonpayable",
            "type": "function"
        },
        {
            "inputs": [
                {
                    "internalType": "bytes4",
                    "name": "interfaceId",
                    "type": "bytes4"
                }
            ],
            "name": "supportsInterface",
            "outputs": [
                {
                    "internalType": "bool",
                    "name": "",
                    "type": "bool"
                }
            ],
            "stateMutability": "view",
            "type": "function"
        },
        {
            "inputs": [],
            "name": "symbol",
            "outputs": [
                {
                    "internalType": "string",
                    "name": "",
                    "type": "string"
                }
            ],
            "stateMutability": "view",
            "type": "function"
        },
        {
            "inputs": [
                {
                    "internalType": "uint256",
                    "name": "index",
                    "type": "uint256"
                }
            ],
            "name": "tokenByIndex",
            "outputs": [
                {
                    "internalType": "uint256",
                    "name": "",
                    "type": "uint256"
                }
            ],
            "stateMutability": "view",
            "type": "function"
        },
        {
            "inputs": [
                {
                    "internalType": "address",
                    "name": "owner",
                    "type": "address"
                },
                {
                    "internalType": "uint256",
                    "name": "index",
                    "type": "uint256"
                }
            ],
            "name": "tokenOfOwnerByIndex",
            "outputs": [
                {
                    "internalType": "uint256",
                    "name": "",
                    "type": "uint256"
                }
            ],
            "stateMutability": "view",
            "type": "function"
        },
        {
            "inputs": [
                {
                    "internalType": "uint256",
                    "name": "tokenId",
                    "type": "uint256"
                }
            ],
            "name": "tokenURI",
            "outputs": [
                {
                    "internalType": "string",
                    "name": "",
                    "type": "string"
                }
            ],
            "stateMutability": "view",
            "type": "function"
        },
        {
            "inputs": [],
            "name": "totalSupply",
            "outputs": [
                {
                    "internalType": "uint256",
                    "name": "",
                    "type": "uint256"
                }
            ],
            "stateMutability": "view",
            "type": "function"
        },
        {
            "inputs": [
                {
                    "internalType": "address",
                    "name": "from",
                    "type": "address"
                },
                {
                    "internalType": "address",
                    "name": "to",
                    "type": "address"
                },
                {
                    "internalType": "uint256",
                    "name": "tokenId",
                    "type": "uint256"
                }
            ],
            "name": "transferFrom",
            "outputs": [],
            "stateMutability": "nonpayable",
            "type": "function"
        }
    ],
    "bytecode": "0x60806040523480156200001157600080fd5b50604080518082018252600e81526d2530b1b596a796a630b73a32b93760911b6020808301918252835180850190945260048452634a41434b60e01b908401528151919291620000649160009162000146565b5080516200007a90600190602084019062000146565b506200008c9150600090503362000092565b62000229565b6200009e8282620000a2565b5050565b6000828152600b602090815260408083206001600160a01b038516845290915290205460ff166200009e576000828152600b602090815260408083206001600160a01b03851684529091529020805460ff19166001179055620001023390565b6001600160a01b0316816001600160a01b0316837f2f8788117e7eff1d82e926ec794901d17c78024a50270940304540a733656f0d60405160405180910390a45050565b8280546200015490620001ec565b90600052602060002090601f016020900481019282620001785760008555620001c3565b82601f106200019357805160ff1916838001178555620001c3565b82800160010185558215620001c3579182015b82811115620001c3578251825591602001919060010190620001a6565b50620001d1929150620001d5565b5090565b5b80821115620001d15760008155600101620001d6565b600181811c908216806200020157607f821691505b602082108114156200022357634e487b7160e01b600052602260045260246000fd5b50919050565b61222280620002396000396000f3fe608060405234801561001057600080fd5b506004361061018e5760003560e01c80634f6ccce7116100de578063a22cb46511610097578063c87b56dd11610071578063c87b56dd14610358578063d53913931461036b578063d547741f14610392578063e985e9c5146103a557600080fd5b8063a22cb4651461032a578063b88d4fde1461033d578063c4e41b221461035057600080fd5b80634f6ccce7146102ce5780636352211e146102e157806370a08231146102f457806391d148541461030757806395d89b411461031a578063a217fddf1461032257600080fd5b806323b872dd1161014b5780632f745c59116101255780632f745c591461028257806336568abe1461029557806340d097c3146102a857806342842e0e146102bb57600080fd5b806323b872dd14610239578063248a9ca31461024c5780632f2ff15d1461026f57600080fd5b806301ffc9a71461019357806306fdde03146101bb578063081812fc146101d0578063095ea7b3146101fb578063110bcd451461021057806318160ddd14610231575b600080fd5b6101a66101a1366004611e8a565b6103e1565b60405190151581526020015b60405180910390f35b6101c36103f2565b6040516101b29190611fcf565b6101e36101de366004611e50565b610484565b6040516001600160a01b0390911681526020016101b2565b61020e610209366004611e27565b610511565b005b61022361021e366004611dc8565b610627565b6040519081526020016101b2565b600854610223565b61020e610247366004611cda565b61064f565b61022361025a366004611e50565b6000908152600b602052604090206001015490565b61020e61027d366004611e68565b610680565b610223610290366004611e27565b6106a6565b61020e6102a3366004611e68565b61073c565b61020e6102b6366004611c8e565b6107ba565b61020e6102c9366004611cda565b610810565b6102236102dc366004611e50565b61082b565b6101e36102ef366004611e50565b6108cc565b610223610302366004611c8e565b610943565b6101a6610315366004611e68565b6109ca565b6101c36109f5565b610223600081565b61020e610338366004611d8e565b610a04565b61020e61034b366004611d15565b610ac9565b610223610b01565b6101c3610366366004611e50565b610b11565b6102237f9f2df0fed2c77648de5860a4cc508cd0818c85b8b8a1ab4ceeef8d981c8956a681565b61020e6103a0366004611e68565b610b1c565b6101a66103b3366004611ca8565b6001600160a01b03918216600090815260056020908152604080832093909416825291909152205460ff1690565b60006103ec82610b42565b92915050565b6060600080546104019061212a565b80601f016020809104026020016040519081016040528092919081815260200182805461042d9061212a565b801561047a5780601f1061044f5761010080835404028352916020019161047a565b820191906000526020600020905b81548152906001019060200180831161045d57829003601f168201915b5050505050905090565b600061048f82610b67565b6104f55760405162461bcd60e51b815260206004820152602c60248201527f4552433732313a20617070726f76656420717565727920666f72206e6f6e657860448201526b34b9ba32b73a103a37b5b2b760a11b60648201526084015b60405180910390fd5b506000908152600460205260409020546001600160a01b031690565b600061051c826108cc565b9050806001600160a01b0316836001600160a01b0316141561058a5760405162461bcd60e51b815260206004820152602160248201527f4552433732313a20617070726f76616c20746f2063757272656e74206f776e656044820152603960f91b60648201526084016104ec565b336001600160a01b03821614806105a657506105a681336103b3565b6106185760405162461bcd60e51b815260206004820152603860248201527f4552433732313a20617070726f76652063616c6c6572206973206e6f74206f7760448201527f6e6572206e6f7220617070726f76656420666f7220616c6c000000000000000060648201526084016104ec565b6106228383610b84565b505050565b600080610633600c5490565b905061063e846107ba565b6106488184610bf2565b9392505050565b6106593382610c7d565b6106755760405162461bcd60e51b81526004016104ec90612034565b610622838383610d67565b6000828152600b602052604090206001015461069c8133610f12565b6106228383610f76565b60006106b183610943565b82106107135760405162461bcd60e51b815260206004820152602b60248201527f455243373231456e756d657261626c653a206f776e657220696e646578206f7560448201526a74206f6620626f756e647360a81b60648201526084016104ec565b506001600160a01b03919091166000908152600660209081526040808320938352929052205490565b6001600160a01b03811633146107ac5760405162461bcd60e51b815260206004820152602f60248201527f416363657373436f6e74726f6c3a2063616e206f6e6c792072656e6f756e636560448201526e103937b632b9903337b91039b2b63360891b60648201526084016104ec565b6107b68282610ffc565b5050565b6107e47f9f2df0fed2c77648de5860a4cc508cd0818c85b8b8a1ab4ceeef8d981c8956a6336109ca565b6107ed57600080fd5b6107ff816107fa600c5490565b611063565b61080d600c80546001019055565b50565b61062283838360405180602001604052806000815250610ac9565b600061083660085490565b82106108995760405162461bcd60e51b815260206004820152602c60248201527f455243373231456e756d657261626c653a20676c6f62616c20696e646578206f60448201526b7574206f6620626f756e647360a01b60648201526084016104ec565b600882815481106108ba57634e487b7160e01b600052603260045260246000fd5b90600052602060002001549050919050565b6000818152600260205260408120546001600160a01b0316806103ec5760405162461bcd60e51b815260206004820152602960248201527f4552433732313a206f776e657220717565727920666f72206e6f6e657869737460448201526832b73a103a37b5b2b760b91b60648201526084016104ec565b60006001600160a01b0382166109ae5760405162461bcd60e51b815260206004820152602a60248201527f4552433732313a2062616c616e636520717565727920666f7220746865207a65604482015269726f206164647265737360b01b60648201526084016104ec565b506001600160a01b031660009081526003602052604090205490565b6000918252600b602090815260408084206001600160a01b0393909316845291905290205460ff1690565b6060600180546104019061212a565b6001600160a01b038216331415610a5d5760405162461bcd60e51b815260206004820152601960248201527f4552433732313a20617070726f766520746f2063616c6c65720000000000000060448201526064016104ec565b3360008181526005602090815260408083206001600160a01b03871680855290835292819020805460ff191686151590811790915590519081529192917f17307eab39ab6107e8899845ad3d59bd9653f200f220920489ca2b5937696c31910160405180910390a35050565b610ad33383610c7d565b610aef5760405162461bcd60e51b81526004016104ec90612034565b610afb8484848461107d565b50505050565b6000610b0c60085490565b905090565b60606103ec826110b0565b6000828152600b6020526040902060010154610b388133610f12565b6106228383610ffc565b60006001600160e01b03198216637965db0b60e01b14806103ec57506103ec8261121f565b6000908152600260205260409020546001600160a01b0316151590565b600081815260046020526040902080546001600160a01b0319166001600160a01b0384169081179091558190610bb9826108cc565b6001600160a01b03167f8c5be1e5ebec7d5bd14f71427d1e84f3dd0314c0f7b2291e5b200ac8c7c3b92560405160405180910390a45050565b610bfb82610b67565b610c5e5760405162461bcd60e51b815260206004820152602e60248201527f45524337323155524953746f726167653a2055524920736574206f66206e6f6e60448201526d32bc34b9ba32b73a103a37b5b2b760911b60648201526084016104ec565b6000828152600a60209081526040909120825161062292840190611b63565b6000610c8882610b67565b610ce95760405162461bcd60e51b815260206004820152602c60248201527f4552433732313a206f70657261746f7220717565727920666f72206e6f6e657860448201526b34b9ba32b73a103a37b5b2b760a11b60648201526084016104ec565b6000610cf4836108cc565b9050806001600160a01b0316846001600160a01b03161480610d2f5750836001600160a01b0316610d2484610484565b6001600160a01b0316145b80610d5f57506001600160a01b0380821660009081526005602090815260408083209388168352929052205460ff165b949350505050565b826001600160a01b0316610d7a826108cc565b6001600160a01b031614610de25760405162461bcd60e51b815260206004820152602960248201527f4552433732313a207472616e73666572206f6620746f6b656e2074686174206960448201526839903737ba1037bbb760b91b60648201526084016104ec565b6001600160a01b038216610e445760405162461bcd60e51b8152602060048201526024808201527f4552433732313a207472616e7366657220746f20746865207a65726f206164646044820152637265737360e01b60648201526084016104ec565b610e4f838383611244565b610e5a600082610b84565b6001600160a01b0383166000908152600360205260408120805460019290610e839084906120d0565b90915550506001600160a01b0382166000908152600360205260408120805460019290610eb1908490612085565b909155505060008181526002602052604080822080546001600160a01b0319166001600160a01b0386811691821790925591518493918716917fddf252ad1be2c89b69c2b068fc378daa952ba7f163c4a11628f55a4df523b3ef91a4505050565b610f1c82826109ca565b6107b657610f34816001600160a01b0316601461124f565b610f3f83602061124f565b604051602001610f50929190611f1d565b60408051601f198184030181529082905262461bcd60e51b82526104ec91600401611fcf565b610f8082826109ca565b6107b6576000828152600b602090815260408083206001600160a01b03851684529091529020805460ff19166001179055610fb83390565b6001600160a01b0316816001600160a01b0316837f2f8788117e7eff1d82e926ec794901d17c78024a50270940304540a733656f0d60405160405180910390a45050565b61100682826109ca565b156107b6576000828152600b602090815260408083206001600160a01b0385168085529252808320805460ff1916905551339285917ff6391f5c32d9c69d2a47ea670b442974b53935d1edc7fd64eb21e047a839171b9190a45050565b6107b6828260405180602001604052806000815250611431565b611088848484610d67565b61109484848484611464565b610afb5760405162461bcd60e51b81526004016104ec90611fe2565b60606110bb82610b67565b6111215760405162461bcd60e51b815260206004820152603160248201527f45524337323155524953746f726167653a2055524920717565727920666f72206044820152703737b732bc34b9ba32b73a103a37b5b2b760791b60648201526084016104ec565b6000828152600a60205260408120805461113a9061212a565b80601f01602080910402602001604051908101604052809291908181526020018280546111669061212a565b80156111b35780601f10611188576101008083540402835291602001916111b3565b820191906000526020600020905b81548152906001019060200180831161119657829003601f168201915b5050505050905060006111d160408051602081019091526000815290565b90508051600014156111e4575092915050565b8151156112165780826040516020016111fe929190611eee565b60405160208183030381529060405292505050919050565b610d5f84611571565b60006001600160e01b0319821663780e9d6360e01b14806103ec57506103ec82611648565b610622838383611698565b6060600061125e8360026120b1565b611269906002612085565b67ffffffffffffffff81111561128f57634e487b7160e01b600052604160045260246000fd5b6040519080825280601f01601f1916602001820160405280156112b9576020820181803683370190505b509050600360fc1b816000815181106112e257634e487b7160e01b600052603260045260246000fd5b60200101906001600160f81b031916908160001a905350600f60fb1b8160018151811061131f57634e487b7160e01b600052603260045260246000fd5b60200101906001600160f81b031916908160001a90535060006113438460026120b1565b61134e906001612085565b90505b60018111156113e2576f181899199a1a9b1b9c1cb0b131b232b360811b85600f166010811061139057634e487b7160e01b600052603260045260246000fd5b1a60f81b8282815181106113b457634e487b7160e01b600052603260045260246000fd5b60200101906001600160f81b031916908160001a90535060049490941c936113db81612113565b9050611351565b5083156106485760405162461bcd60e51b815260206004820181905260248201527f537472696e67733a20686578206c656e67746820696e73756666696369656e7460448201526064016104ec565b61143b8383611750565b6114486000848484611464565b6106225760405162461bcd60e51b81526004016104ec90611fe2565b60006001600160a01b0384163b1561156657604051630a85bd0160e11b81526001600160a01b0385169063150b7a02906114a8903390899088908890600401611f92565b602060405180830381600087803b1580156114c257600080fd5b505af19250505080156114f2575060408051601f3d908101601f191682019092526114ef91810190611ea6565b60015b61154c573d808015611520576040519150601f19603f3d011682016040523d82523d6000602084013e611525565b606091505b5080516115445760405162461bcd60e51b81526004016104ec90611fe2565b805181602001fd5b6001600160e01b031916630a85bd0160e11b149050610d5f565b506001949350505050565b606061157c82610b67565b6115e05760405162461bcd60e51b815260206004820152602f60248201527f4552433732314d657461646174613a2055524920717565727920666f72206e6f60448201526e3732bc34b9ba32b73a103a37b5b2b760891b60648201526084016104ec565b60006115f760408051602081019091526000815290565b905060008151116116175760405180602001604052806000815250610648565b806116218461188f565b604051602001611632929190611eee565b6040516020818303038152906040529392505050565b60006001600160e01b031982166380ac58cd60e01b148061167957506001600160e01b03198216635b5e139f60e01b145b806103ec57506301ffc9a760e01b6001600160e01b03198316146103ec565b6001600160a01b0383166116f3576116ee81600880546000838152600960205260408120829055600182018355919091527ff3f7a9fe364faab93b216da50a3214154f22a0a2b415b23a84c8169e8b636ee30155565b611716565b816001600160a01b0316836001600160a01b0316146117165761171683826119a9565b6001600160a01b03821661172d5761062281611a46565b826001600160a01b0316826001600160a01b031614610622576106228282611b1f565b6001600160a01b0382166117a65760405162461bcd60e51b815260206004820181905260248201527f4552433732313a206d696e7420746f20746865207a65726f206164647265737360448201526064016104ec565b6117af81610b67565b156117fc5760405162461bcd60e51b815260206004820152601c60248201527f4552433732313a20746f6b656e20616c7265616479206d696e7465640000000060448201526064016104ec565b61180860008383611244565b6001600160a01b0382166000908152600360205260408120805460019290611831908490612085565b909155505060008181526002602052604080822080546001600160a01b0319166001600160a01b03861690811790915590518392907fddf252ad1be2c89b69c2b068fc378daa952ba7f163c4a11628f55a4df523b3ef908290a45050565b6060816118b35750506040805180820190915260018152600360fc1b602082015290565b8160005b81156118dd57806118c781612165565b91506118d69050600a8361209d565b91506118b7565b60008167ffffffffffffffff81111561190657634e487b7160e01b600052604160045260246000fd5b6040519080825280601f01601f191660200182016040528015611930576020820181803683370190505b5090505b8415610d5f576119456001836120d0565b9150611952600a86612180565b61195d906030612085565b60f81b81838151811061198057634e487b7160e01b600052603260045260246000fd5b60200101906001600160f81b031916908160001a9053506119a2600a8661209d565b9450611934565b600060016119b684610943565b6119c091906120d0565b600083815260076020526040902054909150808214611a13576001600160a01b03841660009081526006602090815260408083208584528252808320548484528184208190558352600790915290208190555b5060009182526007602090815260408084208490556001600160a01b039094168352600681528383209183525290812055565b600854600090611a58906001906120d0565b60008381526009602052604081205460088054939450909284908110611a8e57634e487b7160e01b600052603260045260246000fd5b906000526020600020015490508060088381548110611abd57634e487b7160e01b600052603260045260246000fd5b6000918252602080832090910192909255828152600990915260408082208490558582528120556008805480611b0357634e487b7160e01b600052603160045260246000fd5b6001900381819060005260206000200160009055905550505050565b6000611b2a83610943565b6001600160a01b039093166000908152600660209081526040808320868452825280832085905593825260079052919091209190915550565b828054611b6f9061212a565b90600052602060002090601f016020900481019282611b915760008555611bd7565b82601f10611baa57805160ff1916838001178555611bd7565b82800160010185558215611bd7579182015b82811115611bd7578251825591602001919060010190611bbc565b50611be3929150611be7565b5090565b5b80821115611be35760008155600101611be8565b600067ffffffffffffffff80841115611c1757611c176121c0565b604051601f8501601f19908116603f01168101908282118183101715611c3f57611c3f6121c0565b81604052809350858152868686011115611c5857600080fd5b858560208301376000602087830101525050509392505050565b80356001600160a01b0381168114611c8957600080fd5b919050565b600060208284031215611c9f578081fd5b61064882611c72565b60008060408385031215611cba578081fd5b611cc383611c72565b9150611cd160208401611c72565b90509250929050565b600080600060608486031215611cee578081fd5b611cf784611c72565b9250611d0560208501611c72565b9150604084013590509250925092565b60008060008060808587031215611d2a578081fd5b611d3385611c72565b9350611d4160208601611c72565b925060408501359150606085013567ffffffffffffffff811115611d63578182fd5b8501601f81018713611d73578182fd5b611d8287823560208401611bfc565b91505092959194509250565b60008060408385031215611da0578182fd5b611da983611c72565b915060208301358015158114611dbd578182fd5b809150509250929050565b60008060408385031215611dda578182fd5b611de383611c72565b9150602083013567ffffffffffffffff811115611dfe578182fd5b8301601f81018513611e0e578182fd5b611e1d85823560208401611bfc565b9150509250929050565b60008060408385031215611e39578182fd5b611e4283611c72565b946020939093013593505050565b600060208284031215611e61578081fd5b5035919050565b60008060408385031215611e7a578182fd5b82359150611cd160208401611c72565b600060208284031215611e9b578081fd5b8135610648816121d6565b600060208284031215611eb7578081fd5b8151610648816121d6565b60008151808452611eda8160208601602086016120e7565b601f01601f19169290920160200192915050565b60008351611f008184602088016120e7565b835190830190611f148183602088016120e7565b01949350505050565b7f416363657373436f6e74726f6c3a206163636f756e7420000000000000000000815260008351611f558160178501602088016120e7565b7001034b99036b4b9b9b4b733903937b6329607d1b6017918401918201528351611f868160288401602088016120e7565b01602801949350505050565b6001600160a01b0385811682528416602082015260408101839052608060608201819052600090611fc590830184611ec2565b9695505050505050565b6020815260006106486020830184611ec2565b60208082526032908201527f4552433732313a207472616e7366657220746f206e6f6e20455243373231526560408201527131b2b4bb32b91034b6b83632b6b2b73a32b960711b606082015260800190565b60208082526031908201527f4552433732313a207472616e736665722063616c6c6572206973206e6f74206f6040820152701ddb995c881b9bdc88185c1c1c9bdd9959607a1b606082015260800190565b6000821982111561209857612098612194565b500190565b6000826120ac576120ac6121aa565b500490565b60008160001904831182151516156120cb576120cb612194565b500290565b6000828210156120e2576120e2612194565b500390565b60005b838110156121025781810151838201526020016120ea565b83811115610afb5750506000910152565b60008161212257612122612194565b506000190190565b600181811c9082168061213e57607f821691505b6020821081141561215f57634e487b7160e01b600052602260045260246000fd5b50919050565b600060001982141561217957612179612194565b5060010190565b60008261218f5761218f6121aa565b500690565b634e487b7160e01b600052601160045260246000fd5b634e487b7160e01b600052601260045260246000fd5b634e487b7160e01b600052604160045260246000fd5b6001600160e01b03198116811461080d57600080fdfea2646970667358221220eb35cbc5874790e596f2c1bed25a8f8916a8b40c55389a5ad6c5f715bf96098264736f6c63430008040033",
    "linkReferences": {},
    "deployedLinkReferences": {}
}