{
    "_format": "hh-sol-artifact-1",
    "contractName": "Lottery",
    "sourceName": "contracts/Lottery.sol",
    "abi": [
        {
            "inputs": [
                {
                    "internalType": "contract JackOLantern",
                    "name": "_jackOLantern",
                    "type": "address"
                },
                {
                    "internalType": "contract PmknToken",
                    "name": "_pmknToken",
                    "type": "address"
                },
                {
                    "internalType": "contract IERC20",
                    "name": "_linkToken",
                    "type": "address"
                },
                {
                    "internalType": "address",
                    "name": "_coorAddress",
                    "type": "address"
                },
                {
                    "internalType": "address",
                    "name": "_linkAddress",
                    "type": "address"
                },
                {
                    "internalType": "uint256",
                    "name": "_fee",
                    "type": "uint256"
                },
                {
                    "internalType": "bytes32",
                    "name": "_keyHash",
                    "type": "bytes32"
                }
            ],
            "stateMutability": "nonpayable",
            "type": "constructor"
        },
        {
            "anonymous": false,
            "inputs": [
                {
                    "indexed": true,
                    "internalType": "address",
                    "name": "winner",
                    "type": "address"
                },
                {
                    "indexed": true,
                    "internalType": "uint256",
                    "name": "amount",
                    "type": "uint256"
                }
            ],
            "name": "LotteryClaim",
            "type": "event"
        },
        {
            "anonymous": false,
            "inputs": [
                {
                    "indexed": true,
                    "internalType": "uint256",
                    "name": "_lotteryCount",
                    "type": "uint256"
                },
                {
                    "indexed": true,
                    "internalType": "bytes32",
                    "name": "_requestId",
                    "type": "bytes32"
                }
            ],
            "name": "LotteryStart",
            "type": "event"
        },
        {
            "anonymous": false,
            "inputs": [
                {
                    "indexed": true,
                    "internalType": "bytes32",
                    "name": "_requestId",
                    "type": "bytes32"
                },
                {
                    "indexed": true,
                    "internalType": "uint256",
                    "name": "_winningNumber",
                    "type": "uint256"
                }
            ],
            "name": "NumberReceived",
            "type": "event"
        },
        {
            "anonymous": false,
            "inputs": [
                {
                    "indexed": true,
                    "internalType": "address",
                    "name": "previousOwner",
                    "type": "address"
                },
                {
                    "indexed": true,
                    "internalType": "address",
                    "name": "newOwner",
                    "type": "address"
                }
            ],
            "name": "OwnershipTransferred",
            "type": "event"
        },
        {
            "anonymous": false,
            "inputs": [
                {
                    "indexed": true,
                    "internalType": "address",
                    "name": "from",
                    "type": "address"
                },
                {
                    "indexed": true,
                    "internalType": "uint256",
                    "name": "amount",
                    "type": "uint256"
                }
            ],
            "name": "WithdrawLink",
            "type": "event"
        },
        {
            "inputs": [
                {
                    "internalType": "address",
                    "name": "from",
                    "type": "address"
                },
                {
                    "internalType": "uint256",
                    "name": "pmkn",
                    "type": "uint256"
                }
            ],
            "name": "addToLotteryPool",
            "outputs": [],
            "stateMutability": "nonpayable",
            "type": "function"
        },
        {
            "inputs": [],
            "name": "claimLottoWinnings",
            "outputs": [],
            "stateMutability": "nonpayable",
            "type": "function"
        },
        {
            "inputs": [],
            "name": "getLinkBalance",
            "outputs": [
                {
                    "internalType": "uint256",
                    "name": "",
                    "type": "uint256"
                }
            ],
            "stateMutability": "view",
            "type": "function"
        },
        {
            "inputs": [],
            "name": "getWinningNumber",
            "outputs": [],
            "stateMutability": "nonpayable",
            "type": "function"
        },
        {
            "inputs": [],
            "name": "jackOLantern",
            "outputs": [
                {
                    "internalType": "contract JackOLantern",
                    "name": "",
                    "type": "address"
                }
            ],
            "stateMutability": "view",
            "type": "function"
        },
        {
            "inputs": [],
            "name": "linkToken",
            "outputs": [
                {
                    "internalType": "contract IERC20",
                    "name": "",
                    "type": "address"
                }
            ],
            "stateMutability": "view",
            "type": "function"
        },
        {
            "inputs": [],
            "name": "lotteryCount",
            "outputs": [
                {
                    "internalType": "uint256",
                    "name": "",
                    "type": "uint256"
                }
            ],
            "stateMutability": "view",
            "type": "function"
        },
        {
            "inputs": [],
            "name": "owner",
            "outputs": [
                {
                    "internalType": "address",
                    "name": "",
                    "type": "address"
                }
            ],
            "stateMutability": "view",
            "type": "function"
        },
        {
            "inputs": [],
            "name": "pmknToken",
            "outputs": [
                {
                    "internalType": "contract PmknToken",
                    "name": "",
                    "type": "address"
                }
            ],
            "stateMutability": "view",
            "type": "function"
        },
        {
            "inputs": [
                {
                    "internalType": "bytes32",
                    "name": "requestId",
                    "type": "bytes32"
                },
                {
                    "internalType": "uint256",
                    "name": "randomness",
                    "type": "uint256"
                }
            ],
            "name": "rawFulfillRandomness",
            "outputs": [],
            "stateMutability": "nonpayable",
            "type": "function"
        },
        {
            "inputs": [],
            "name": "renounceOwnership",
            "outputs": [],
            "stateMutability": "nonpayable",
            "type": "function"
        },
        {
            "inputs": [
                {
                    "internalType": "bytes32",
                    "name": "",
                    "type": "bytes32"
                }
            ],
            "name": "requestIdToCount",
            "outputs": [
                {
                    "internalType": "uint256",
                    "name": "",
                    "type": "uint256"
                }
            ],
            "stateMutability": "view",
            "type": "function"
        },
        {
            "inputs": [
                {
                    "internalType": "address",
                    "name": "newOwner",
                    "type": "address"
                }
            ],
            "name": "transferOwnership",
            "outputs": [],
            "stateMutability": "nonpayable",
            "type": "function"
        },
        {
            "inputs": [
                {
                    "internalType": "uint256",
                    "name": "",
                    "type": "uint256"
                }
            ],
            "name": "winningNumber",
            "outputs": [
                {
                    "internalType": "uint256",
                    "name": "",
                    "type": "uint256"
                }
            ],
            "stateMutability": "view",
            "type": "function"
        },
        {
            "inputs": [],
            "name": "withdrawLink",
            "outputs": [],
            "stateMutability": "nonpayable",
            "type": "function"
        }
    ],
    "bytecode": "0x60c060405234801561001057600080fd5b506040516200107c3803806200107c833981016040819052610031916100de565b600080546001600160a01b03191633908117825560405186928692918291907f8be0079c531659141344cd1fd0a4f28419497f9722a3daafe3b4186f6b6457e0908290a350606091821b6001600160601b031990811660a052911b16608052600680546001600160a01b03199081166001600160a01b03998a161790915560078054821697891697909717909655600880549096169490961693909317909355506004555060055561017d565b600080600080600080600060e0888a0312156100f8578283fd5b875161010381610165565b602089015190975061011481610165565b604089015190965061012581610165565b606089015190955061013681610165565b608089015190945061014781610165565b8093505060a0880151915060c0880151905092959891949750929550565b6001600160a01b038116811461017a57600080fd5b50565b60805160601c60a05160601c610ecc620001b06000396000818161072b0152610b4101526000610b120152610ecc6000f3fe608060405234801561001057600080fd5b50600436106100f55760003560e01c80638dc654a211610097578063c7d59d7511610066578063c7d59d75146101c2578063e0704fe3146101e2578063e370115f146101f5578063f2fde38b1461020857600080fd5b80638dc654a21461017e57806394985ddd14610186578063b8b81e4014610199578063c6f6d9d9146101b957600080fd5b8063715018a6116100d3578063715018a6146101555780638ac05f921461015d5780638b0b9ed4146101655780638da5cb5b1461016d57600080fd5b806350c5f975146100fa57806357714c3e1461011557806357970e931461012a575b600080fd5b61010261021b565b6040519081526020015b60405180910390f35b610128610123366004610cdd565b61029c565b005b60085461013d906001600160a01b031681565b6040516001600160a01b03909116815260200161010c565b61012861038b565b6101286103ff565b610128610539565b6000546001600160a01b031661013d565b6101286105c4565b610128610194366004610d3e565b610720565b6101026101a7366004610d26565b60096020526000908152604090205481565b61010260035481565b6101026101d0366004610d26565b600a6020526000908152604090205481565b60075461013d906001600160a01b031681565b60065461013d906001600160a01b031681565b610128610216366004610cbc565b6107a6565b6008546040516370a0823160e01b81523060048201526000916001600160a01b0316906370a082319060240160206040518083038186803b15801561025f57600080fd5b505afa158015610273573d6000803e3d6000fd5b505050506040513d601f19601f820116820180604052508101906102979190610d5f565b905090565b600081116102e35760405162461bcd60e51b815260206004820152600f60248201526e43616e6e6f7420616464207a65726f60881b60448201526064015b60405180910390fd5b80600260008282546102f59190610e16565b90915550506007546040516323b872dd60e01b81526001600160a01b03848116600483015230602483015260448201849052909116906323b872dd90606401602060405180830381600087803b15801561034e57600080fd5b505af1158015610362573d6000803e3d6000fd5b505050506040513d601f19601f820116820180604052508101906103869190610d06565b505050565b6000546001600160a01b031633146103b55760405162461bcd60e51b81526004016102da90610de1565b600080546040516001600160a01b03909116907f8be0079c531659141344cd1fd0a4f28419497f9722a3daafe3b4186f6b6457e0908390a3600080546001600160a01b0319169055565b61040833610890565b801561041657506000600254115b61047b5760405162461bcd60e51b815260206004820152603060248201527f596f752065697468657220646964206e6f742077696e206f72206e6f7468696e60448201526f19c81a5b881b1bdd1d195c9e541bdbdb60821b60648201526084016102da565b60028054600090915560075460405163a9059cbb60e01b8152336004820152602481018390526001600160a01b039091169063a9059cbb90604401602060405180830381600087803b1580156104d057600080fd5b505af11580156104e4573d6000803e3d6000fd5b505050506040513d601f19601f820116820180604052508101906105089190610d06565b50604051819033907f54e4d435edfc4d840024a9bbc857ff78e168dc9e3a47975a08983a2c0758568c90600090a350565b6000546001600160a01b031633146105635760405162461bcd60e51b81526004016102da90610de1565b600061056d6109e9565b6003546000828152600a60205260408082208390555192935083927fc8453365fa195e9b51ea141dc9b600e817ba52d8c91f04900b712f29c3549be59190a3600380549060006105bc83610e45565b919050555050565b6000546001600160a01b031633146105ee5760405162461bcd60e51b81526004016102da90610de1565b6008546040516370a0823160e01b81523060048201526000916001600160a01b0316906370a082319060240160206040518083038186803b15801561063257600080fd5b505afa158015610646573d6000803e3d6000fd5b505050506040513d601f19601f8201168201806040525081019061066a9190610d5f565b60085460405163a9059cbb60e01b8152336004820152602481018390529192506001600160a01b03169063a9059cbb90604401602060405180830381600087803b1580156106b757600080fd5b505af11580156106cb573d6000803e3d6000fd5b505050506040513d601f19601f820116820180604052508101906106ef9190610d06565b50604051819033907f12b25b675c326f2373fa9b6e2d394dcfb471baa7c0fe8df426279c2a3d77c4a890600090a350565b336001600160a01b037f000000000000000000000000000000000000000000000000000000000000000016146107985760405162461bcd60e51b815260206004820152601f60248201527f4f6e6c7920565246436f6f7264696e61746f722063616e2066756c66696c6c0060448201526064016102da565b6107a28282610a33565b5050565b6000546001600160a01b031633146107d05760405162461bcd60e51b81526004016102da90610de1565b6001600160a01b0381166108355760405162461bcd60e51b815260206004820152602660248201527f4f776e61626c653a206e6577206f776e657220697320746865207a65726f206160448201526564647265737360d01b60648201526084016102da565b600080546040516001600160a01b03808516939216917f8be0079c531659141344cd1fd0a4f28419497f9722a3daafe3b4186f6b6457e091a3600080546001600160a01b0319166001600160a01b0392909216919091179055565b6006546040516370a0823160e01b81526001600160a01b03838116600483015260009283929116906370a082319060240160206040518083038186803b1580156108d957600080fd5b505afa1580156108ed573d6000803e3d6000fd5b505050506040513d601f19601f820116820180604052508101906109119190610d5f565b905060006009600060016003546109289190610e2e565b815260200190815260200160002054905060005b828110156109e157600654604051632f745c5960e01b81526001600160a01b0387811660048301526024820184905284921690632f745c599060440160206040518083038186803b15801561099057600080fd5b505afa1580156109a4573d6000803e3d6000fd5b505050506040513d601f19601f820116820180604052508101906109c89190610d5f565b14156109d957506001949350505050565b60010161093c565b505050919050565b6000806109f7600143610e2e565b6040805191406020830152016040516020818303038152906040528051906020012060001c9050610a2d60055460045483610b0e565b91505090565b600654604080516362720d9160e11b815290516000926001600160a01b03169163c4e41b22916004808301926020929190829003018186803b158015610a7857600080fd5b505afa158015610a8c573d6000803e3d6000fd5b505050506040513d601f19601f82011682018060405250810190610ab09190610d5f565b90506000610abe8284610e60565b6000858152600a60209081526040808320548352600990915280822083905551919250829186917fe5d62159d150df9ef19174bcdaefd204027b471475b976a0be0ee3e9f31f547291a350505050565b60007f00000000000000000000000000000000000000000000000000000000000000006001600160a01b0316634000aea07f0000000000000000000000000000000000000000000000000000000000000000858786604051602001610b7d929190918252602082015260400190565b6040516020818303038152906040526040518463ffffffff1660e01b8152600401610baa93929190610d77565b602060405180830381600087803b158015610bc457600080fd5b505af1158015610bd8573d6000803e3d6000fd5b505050506040513d601f19601f82011682018060405250810190610bfc9190610d06565b5060008481526001602081815260408084205481518084018a905280830188905230606082015260808082018390528351808303909101815260a09091019092528151918301919091209388905290829052610c5791610e16565b600086815260016020526040902055610c978582604080516020808201949094528082019290925280518083038201815260609092019052805191012090565b95945050505050565b80356001600160a01b0381168114610cb757600080fd5b919050565b600060208284031215610ccd578081fd5b610cd682610ca0565b9392505050565b60008060408385031215610cef578081fd5b610cf883610ca0565b946020939093013593505050565b600060208284031215610d17578081fd5b81518015158114610cd6578182fd5b600060208284031215610d37578081fd5b5035919050565b60008060408385031215610d50578182fd5b50508035926020909101359150565b600060208284031215610d70578081fd5b5051919050565b60018060a01b0384168152600060208481840152606060408401528351806060850152825b81811015610db857858101830151858201608001528201610d9c565b81811115610dc95783608083870101525b50601f01601f19169290920160800195945050505050565b6020808252818101527f4f776e61626c653a2063616c6c6572206973206e6f7420746865206f776e6572604082015260600190565b60008219821115610e2957610e29610e80565b500190565b600082821015610e4057610e40610e80565b500390565b6000600019821415610e5957610e59610e80565b5060010190565b600082610e7b57634e487b7160e01b81526012600452602481fd5b500690565b634e487b7160e01b600052601160045260246000fdfea26469706673582212207928d0f5ed87e781f55e1754435e856d6cb43575d1a4f04cd22f951e2e2ecfac64736f6c63430008040033",
    "linkReferences": {},
    "deployedLinkReferences": {}
}