{
  "_format": "hh-sol-artifact-1",
  "contractName": "PmknFarm",
  "sourceName": "contracts/PmknFarm.sol",
  "abi": [
    {
      "inputs": [
        {
          "internalType": "contract IERC20",
          "name": "_daiToken",
          "type": "address"
        },
        {
          "internalType": "contract PmknToken",
          "name": "_pmknToken",
          "type": "address"
        },
        {
          "internalType": "contract JackOLantern",
          "name": "_jackOLantern",
          "type": "address"
        },
        {
          "internalType": "uint256",
          "name": "_nftPrice",
          "type": "uint256"
        }
      ],
      "stateMutability": "nonpayable",
      "type": "constructor"
    },
    {
      "anonymous": false,
      "inputs": [
        {
          "indexed": true,
          "internalType": "address",
          "name": "to",
          "type": "address"
        },
        {
          "indexed": true,
          "internalType": "uint256",
          "name": "tokenId",
          "type": "uint256"
        }
      ],
      "name": "MintNFT",
      "type": "event"
    },
    {
      "anonymous": false,
      "inputs": [
        {
          "indexed": true,
          "internalType": "address",
          "name": "from",
          "type": "address"
        },
        {
          "indexed": false,
          "internalType": "uint256",
          "name": "amount",
          "type": "uint256"
        }
      ],
      "name": "Stake",
      "type": "event"
    },
    {
      "anonymous": false,
      "inputs": [
        {
          "indexed": true,
          "internalType": "address",
          "name": "from",
          "type": "address"
        },
        {
          "indexed": false,
          "internalType": "uint256",
          "name": "amount",
          "type": "uint256"
        }
      ],
      "name": "Unstake",
      "type": "event"
    },
    {
      "anonymous": false,
      "inputs": [
        {
          "indexed": true,
          "internalType": "address",
          "name": "to",
          "type": "address"
        },
        {
          "indexed": false,
          "internalType": "uint256",
          "name": "amount",
          "type": "uint256"
        }
      ],
      "name": "YieldWithdraw",
      "type": "event"
    },
    {
      "inputs": [
        {
          "internalType": "address",
          "name": "user",
          "type": "address"
        }
      ],
      "name": "calculateYieldTime",
      "outputs": [
        {
          "internalType": "uint256",
          "name": "",
          "type": "uint256"
        }
      ],
      "stateMutability": "view",
      "type": "function"
    },
    {
      "inputs": [
        {
          "internalType": "address",
          "name": "user",
          "type": "address"
        }
      ],
      "name": "calculateYieldTotal",
      "outputs": [
        {
          "internalType": "uint256",
          "name": "",
          "type": "uint256"
        }
      ],
      "stateMutability": "view",
      "type": "function"
    },
    {
      "inputs": [],
      "name": "daiToken",
      "outputs": [
        {
          "internalType": "contract IERC20",
          "name": "",
          "type": "address"
        }
      ],
      "stateMutability": "view",
      "type": "function"
    },
    {
      "inputs": [
        {
          "internalType": "address",
          "name": "",
          "type": "address"
        }
      ],
      "name": "isStaking",
      "outputs": [
        {
          "internalType": "bool",
          "name": "",
          "type": "bool"
        }
      ],
      "stateMutability": "view",
      "type": "function"
    },
    {
      "inputs": [],
      "name": "jackOLantern",
      "outputs": [
        {
          "internalType": "contract JackOLantern",
          "name": "",
          "type": "address"
        }
      ],
      "stateMutability": "view",
      "type": "function"
    },
    {
      "inputs": [
        {
          "internalType": "address",
          "name": "user",
          "type": "address"
        },
        {
          "internalType": "string",
          "name": "tokenURI",
          "type": "string"
        }
      ],
      "name": "mintNFT",
      "outputs": [],
      "stateMutability": "nonpayable",
      "type": "function"
    },
    {
      "inputs": [],
      "name": "name",
      "outputs": [
        {
          "internalType": "string",
          "name": "",
          "type": "string"
        }
      ],
      "stateMutability": "view",
      "type": "function"
    },
    {
      "inputs": [
        {
          "internalType": "address",
          "name": "",
          "type": "address"
        }
      ],
      "name": "pmknBalance",
      "outputs": [
        {
          "internalType": "uint256",
          "name": "",
          "type": "uint256"
        }
      ],
      "stateMutability": "view",
      "type": "function"
    },
    {
      "inputs": [],
      "name": "pmknToken",
      "outputs": [
        {
          "internalType": "contract PmknToken",
          "name": "",
          "type": "address"
        }
      ],
      "stateMutability": "view",
      "type": "function"
    },
    {
      "inputs": [
        {
          "internalType": "uint256",
          "name": "amount",
          "type": "uint256"
        }
      ],
      "name": "stake",
      "outputs": [],
      "stateMutability": "nonpayable",
      "type": "function"
    },
    {
      "inputs": [
        {
          "internalType": "address",
          "name": "",
          "type": "address"
        }
      ],
      "name": "stakingBalance",
      "outputs": [
        {
          "internalType": "uint256",
          "name": "",
          "type": "uint256"
        }
      ],
      "stateMutability": "view",
      "type": "function"
    },
    {
      "inputs": [
        {
          "internalType": "address",
          "name": "",
          "type": "address"
        }
      ],
      "name": "startTime",
      "outputs": [
        {
          "internalType": "uint256",
          "name": "",
          "type": "uint256"
        }
      ],
      "stateMutability": "view",
      "type": "function"
    },
    {
      "inputs": [
        {
          "internalType": "uint256",
          "name": "amount",
          "type": "uint256"
        }
      ],
      "name": "unstake",
      "outputs": [],
      "stateMutability": "nonpayable",
      "type": "function"
    },
    {
      "inputs": [],
      "name": "withdrawYield",
      "outputs": [],
      "stateMutability": "nonpayable",
      "type": "function"
    }
  ],
  "bytecode": "0x60c06040526009608081905268506d6b6e204661726d60b81b60a09081526200002c9160049190620000a3565b503480156200003a57600080fd5b5060405162000fb138038062000fb18339810160408190526200005d9162000149565b600580546001600160a01b03199081166001600160a01b0396871617909155600680548216948616949094179093556007805490931691909316179055600855620001f8565b828054620000b190620001a2565b90600052602060002090601f016020900481019282620000d5576000855562000120565b82601f10620000f057805160ff191683800117855562000120565b8280016001018555821562000120579182015b828111156200012057825182559160200191906001019062000103565b506200012e92915062000132565b5090565b5b808211156200012e576000815560010162000133565b600080600080608085870312156200015f578384fd5b84516200016c81620001df565b60208601519094506200017f81620001df565b60408601519093506200019281620001df565b6060959095015193969295505050565b600181811c90821680620001b757607f821691505b60208210811415620001d957634e487b7160e01b600052602260045260246000fd5b50919050565b6001600160a01b0381168114620001f557600080fd5b50565b610da980620002086000396000f3fe608060405234801561001057600080fd5b50600436106100ea5760003560e01c8063980d61161161008c578063e0704fe311610066578063e0704fe314610223578063e370115f14610236578063e507a8a414610249578063eacabe141461025157600080fd5b8063980d6116146101d2578063a694fc3a146101e5578063be22f546146101f857600080fd5b806345bc78ab116100c857806345bc78ab1461013f5780636e1dc66e1461015f5780636f49712b1461017f578063828bee59146101b257600080fd5b806306872661146100ef57806306fdde03146101155780632e17de781461012a575b600080fd5b6101026100fd366004610aee565b610264565b6040519081526020015b60405180910390f35b61011d6102da565b60405161010c9190610c8b565b61013d610138366004610bec565b610368565b005b61010261014d366004610aee565b60006020819052908152604090205481565b61010261016d366004610aee565b60026020526000908152604090205481565b6101a261018d366004610aee565b60016020526000908152604090205460ff1681565b604051901515815260200161010c565b6101026101c0366004610aee565b60036020526000908152604090205481565b6101026101e0366004610aee565b61051a565b61013d6101f3366004610bec565b610549565b60055461020b906001600160a01b031681565b6040516001600160a01b03909116815260200161010c565b60065461020b906001600160a01b031681565b60075461020b906001600160a01b031681565b61013d61077f565b61013d61025f366004610b0f565b6108cb565b6000806102708361051a565b61028290670de0b6b3a7640000610cd6565b90506201518060006102948284610cb6565b6001600160a01b03861660009081526020819052604081205491925090670de0b6b3a7640000906102c6908490610cd6565b6102d09190610cb6565b9695505050505050565b600480546102e790610d0c565b80601f016020809104026020016040519081016040528092919081815260200182805461031390610d0c565b80156103605780601f1061033557610100808354040283529160200191610360565b820191906000526020600020905b81548152906001019060200180831161034357829003601f168201915b505050505081565b33600090815260208181526040808320546001909252909120805460ff19169183111591821790556103d65760405162461bcd60e51b81526020600482015260126024820152714e6f7468696e6720746f20756e7374616b6560701b60448201526064015b60405180910390fd5b60006103e133610264565b3360009081526020819052604081208054919492935082918590610406908490610cf5565b909155505060055460405163a9059cbb60e01b8152336004820152602481018390526001600160a01b039091169063a9059cbb90604401602060405180830381600087803b15801561045757600080fd5b505af115801561046b573d6000803e3d6000fd5b505050506040513d601f19601f8201168201806040525081019061048f9190610bcc565b5033600090815260036020526040812080548492906104af908490610c9e565b9091555050336000908152602081905260409020546104e057336000908152600160205260409020805460ff191690555b60405181815233907f85082129d87b2fe11527cb1b3b7a520aeb5aa6913f88a3d8757fe40d1db02fdd9060200160405180910390a2505050565b6001600160a01b038116600090815260026020526040812054429082906105419083610cf5565b949350505050565b6000811180156105d257506005546040516370a0823160e01b815233600482015282916001600160a01b0316906370a082319060240160206040518083038186803b15801561059757600080fd5b505afa1580156105ab573d6000803e3d6000fd5b505050506040513d601f19601f820116820180604052508101906105cf9190610c04565b10155b61061e5760405162461bcd60e51b815260206004820152601c60248201527f596f752063616e6e6f74207374616b65207a65726f20746f6b656e730000000060448201526064016103cd565b3360009081526001602081905260409091205460ff161515141561067257600061064733610264565b3360009081526003602052604081208054929350839290919061066b908490610c9e565b9091555050505b6005546040516323b872dd60e01b8152336004820152306024820152604481018390526001600160a01b03909116906323b872dd90606401602060405180830381600087803b1580156106c457600080fd5b505af11580156106d8573d6000803e3d6000fd5b505050506040513d601f19601f820116820180604052508101906106fc9190610bcc565b50336000908152602081905260408120805483929061071c908490610c9e565b9091555050336000818152600260209081526040808320429055600180835292819020805460ff191690931790925590518381527febedb8b3c678666e7f36970bc8f57abf6d8fa2e828c0da91ea5b75bf68ed101a91015b60405180910390a250565b600061078a33610264565b905060008111806107a957503360009081526003602052604090205415155b6107eb5760405162461bcd60e51b81526020600482015260136024820152724e6f7468696e6720746f20776974686472617760681b60448201526064016103cd565b336000908152600360205260409020541561082257336000908152600360205260408120805491905561081e8183610c9e565b9150505b336000818152600260205260409081902042905560065490516340c10f1960e01b81526004810192909252602482018390526001600160a01b0316906340c10f1990604401600060405180830381600087803b15801561088157600080fd5b505af1158015610895573d6000803e3d6000fd5b50506040518381523392507f92044e3943309ee5950e21bc7421d02c1df75f0df33c0d97c1143687b49a4c579150602001610774565b6008546006546040516370a0823160e01b81523360048201526001600160a01b03909116906370a082319060240160206040518083038186803b15801561091157600080fd5b505afa158015610925573d6000803e3d6000fd5b505050506040513d601f19601f820116820180604052508101906109499190610c04565b10156109895760405162461bcd60e51b815260206004820152600f60248201526e2737ba1032b737bab3b4102826a5a760891b60448201526064016103cd565b6006546008546040516323b872dd60e01b815233600482015230602482015260448101919091526001600160a01b03909116906323b872dd90606401602060405180830381600087803b1580156109df57600080fd5b505af11580156109f3573d6000803e3d6000fd5b505050506040513d601f19601f82011682018060405250810190610a179190610bcc565b5060075460405163110bcd4560e01b81526000916001600160a01b03169063110bcd4590610a4b9086908690600401610c67565b602060405180830381600087803b158015610a6557600080fd5b505af1158015610a79573d6000803e3d6000fd5b505050506040513d601f19601f82011682018060405250810190610a9d9190610c04565b604051909150819033907f1f89f147a58d1673945cf416187db98efc8208408c011b91887acd59fd8523c390600090a3505050565b80356001600160a01b0381168114610ae957600080fd5b919050565b600060208284031215610aff578081fd5b610b0882610ad2565b9392505050565b60008060408385031215610b21578081fd5b610b2a83610ad2565b9150602083013567ffffffffffffffff80821115610b46578283fd5b818501915085601f830112610b59578283fd5b813581811115610b6b57610b6b610d5d565b604051601f8201601f19908116603f01168101908382118183101715610b9357610b93610d5d565b81604052828152886020848701011115610bab578586fd5b82602086016020830137856020848301015280955050505050509250929050565b600060208284031215610bdd578081fd5b81518015158114610b08578182fd5b600060208284031215610bfd578081fd5b5035919050565b600060208284031215610c15578081fd5b5051919050565b60008151808452815b81811015610c4157602081850181015186830182015201610c25565b81811115610c525782602083870101525b50601f01601f19169290920160200192915050565b6001600160a01b038316815260406020820181905260009061054190830184610c1c565b602081526000610b086020830184610c1c565b60008219821115610cb157610cb1610d47565b500190565b600082610cd157634e487b7160e01b81526012600452602481fd5b500490565b6000816000190483118215151615610cf057610cf0610d47565b500290565b600082821015610d0757610d07610d47565b500390565b600181811c90821680610d2057607f821691505b60208210811415610d4157634e487b7160e01b600052602260045260246000fd5b50919050565b634e487b7160e01b600052601160045260246000fd5b634e487b7160e01b600052604160045260246000fdfea2646970667358221220c3e96f2904e97743e5352431800e0c240aa72eae425f8455bcae4e77f900ec0d64736f6c63430008040033",
  "linkReferences": {},
  "deployedLinkReferences": {}
}