{
  "_format": "hh-sol-artifact-1",
  "contractName": "PmknFarm",
  "sourceName": "contracts/PmknFarm.sol",
  "abi": [
    {
      "inputs": [
        {
          "internalType": "contract IERC20",
          "name": "_daiToken",
          "type": "address"
        },
        {
          "internalType": "contract PmknToken",
          "name": "_pmknToken",
          "type": "address"
        }
      ],
      "stateMutability": "nonpayable",
      "type": "constructor"
    },
    {
      "anonymous": false,
      "inputs": [
        {
          "indexed": false,
          "internalType": "address",
          "name": "from",
          "type": "address"
        },
        {
          "indexed": false,
          "internalType": "uint256",
          "name": "amount",
          "type": "uint256"
        }
      ],
      "name": "Deposit",
      "type": "event"
    },
    {
      "anonymous": false,
      "inputs": [
        {
          "indexed": false,
          "internalType": "address",
          "name": "from",
          "type": "address"
        },
        {
          "indexed": false,
          "internalType": "uint256",
          "name": "amount",
          "type": "uint256"
        }
      ],
      "name": "Stake",
      "type": "event"
    },
    {
      "anonymous": false,
      "inputs": [
        {
          "indexed": false,
          "internalType": "address",
          "name": "from",
          "type": "address"
        },
        {
          "indexed": false,
          "internalType": "uint256",
          "name": "amount",
          "type": "uint256"
        }
      ],
      "name": "Unstake",
      "type": "event"
    },
    {
      "anonymous": false,
      "inputs": [
        {
          "indexed": false,
          "internalType": "address",
          "name": "to",
          "type": "address"
        },
        {
          "indexed": false,
          "internalType": "address",
          "name": "from",
          "type": "address"
        },
        {
          "indexed": false,
          "internalType": "uint256",
          "name": "amount",
          "type": "uint256"
        }
      ],
      "name": "Withdrawal",
      "type": "event"
    },
    {
      "inputs": [
        {
          "internalType": "address",
          "name": "user",
          "type": "address"
        }
      ],
      "name": "calculateYieldTime",
      "outputs": [
        {
          "internalType": "uint256",
          "name": "",
          "type": "uint256"
        }
      ],
      "stateMutability": "view",
      "type": "function"
    },
    {
      "inputs": [
        {
          "internalType": "address",
          "name": "user",
          "type": "address"
        }
      ],
      "name": "calculateYieldTotal",
      "outputs": [
        {
          "internalType": "uint256",
          "name": "",
          "type": "uint256"
        }
      ],
      "stateMutability": "view",
      "type": "function"
    },
    {
      "inputs": [],
      "name": "daiToken",
      "outputs": [
        {
          "internalType": "contract IERC20",
          "name": "",
          "type": "address"
        }
      ],
      "stateMutability": "view",
      "type": "function"
    },
    {
      "inputs": [
        {
          "internalType": "address",
          "name": "",
          "type": "address"
        }
      ],
      "name": "isStaking",
      "outputs": [
        {
          "internalType": "bool",
          "name": "",
          "type": "bool"
        }
      ],
      "stateMutability": "view",
      "type": "function"
    },
    {
      "inputs": [],
      "name": "name",
      "outputs": [
        {
          "internalType": "string",
          "name": "",
          "type": "string"
        }
      ],
      "stateMutability": "view",
      "type": "function"
    },
    {
      "inputs": [
        {
          "internalType": "address",
          "name": "",
          "type": "address"
        }
      ],
      "name": "pmknBalance",
      "outputs": [
        {
          "internalType": "uint256",
          "name": "",
          "type": "uint256"
        }
      ],
      "stateMutability": "view",
      "type": "function"
    },
    {
      "inputs": [],
      "name": "pmknToken",
      "outputs": [
        {
          "internalType": "contract PmknToken",
          "name": "",
          "type": "address"
        }
      ],
      "stateMutability": "view",
      "type": "function"
    },
    {
      "inputs": [
        {
          "internalType": "address",
          "name": "",
          "type": "address"
        }
      ],
      "name": "pmknYield",
      "outputs": [
        {
          "internalType": "uint256",
          "name": "",
          "type": "uint256"
        }
      ],
      "stateMutability": "view",
      "type": "function"
    },
    {
      "inputs": [
        {
          "internalType": "uint256",
          "name": "amount",
          "type": "uint256"
        }
      ],
      "name": "stake",
      "outputs": [],
      "stateMutability": "nonpayable",
      "type": "function"
    },
    {
      "inputs": [
        {
          "internalType": "address",
          "name": "",
          "type": "address"
        }
      ],
      "name": "stakingBalance",
      "outputs": [
        {
          "internalType": "uint256",
          "name": "",
          "type": "uint256"
        }
      ],
      "stateMutability": "view",
      "type": "function"
    },
    {
      "inputs": [
        {
          "internalType": "address",
          "name": "",
          "type": "address"
        }
      ],
      "name": "startTime",
      "outputs": [
        {
          "internalType": "uint256",
          "name": "",
          "type": "uint256"
        }
      ],
      "stateMutability": "view",
      "type": "function"
    },
    {
      "inputs": [
        {
          "internalType": "uint256",
          "name": "amount",
          "type": "uint256"
        }
      ],
      "name": "unstake",
      "outputs": [],
      "stateMutability": "nonpayable",
      "type": "function"
    },
    {
      "inputs": [],
      "name": "withdrawYield",
      "outputs": [],
      "stateMutability": "nonpayable",
      "type": "function"
    }
  ],
  "bytecode": "0x60c06040526009608081905268506d6b6e204661726d60b81b60a09081526200002c91600591906200008f565b503480156200003a57600080fd5b5060405162000b6d38038062000b6d8339810160408190526200005d9162000135565b600680546001600160a01b039384166001600160a01b03199182161790915560078054929093169116179055620001c9565b8280546200009d9062000173565b90600052602060002090601f016020900481019282620000c157600085556200010c565b82601f10620000dc57805160ff19168380011785556200010c565b828001600101855582156200010c579182015b828111156200010c578251825591602001919060010190620000ef565b506200011a9291506200011e565b5090565b5b808211156200011a57600081556001016200011f565b6000806040838503121562000148578182fd5b82516200015581620001b0565b60208401519092506200016881620001b0565b809150509250929050565b600181811c908216806200018857607f821691505b60208210811415620001aa57634e487b7160e01b600052602260045260246000fd5b50919050565b6001600160a01b0381168114620001c657600080fd5b50565b61099480620001d96000396000f3fe608060405234801561001057600080fd5b50600436106100cf5760003560e01c8063828bee591161008c578063be22f54611610066578063be22f546146101dd578063d9f8176614610208578063e0704fe314610228578063e507a8a41461023b57600080fd5b8063828bee5914610197578063980d6116146101b7578063a694fc3a146101ca57600080fd5b806306872661146100d457806306fdde03146100fa5780632e17de781461010f57806345bc78ab146101245780636e1dc66e146101445780636f49712b14610164575b600080fd5b6100e76100e23660046107ce565b610243565b6040519081526020015b60405180910390f35b6101026102b9565b6040516100f1919061084c565b61012261011d36600461081c565b610347565b005b6100e76101323660046107ce565b60006020819052908152604090205481565b6100e76101523660046107ce565b60026020526000908152604090205481565b6101876101723660046107ce565b60016020526000908152604090205460ff1681565b60405190151581526020016100f1565b6100e76101a53660046107ce565b60046020526000908152604090205481565b6100e76101c53660046107ce565b6104c2565b6101226101d836600461081c565b6104f1565b6006546101f0906001600160a01b031681565b6040516001600160a01b0390911681526020016100f1565b6100e76102163660046107ce565b60036020526000908152604090205481565b6007546101f0906001600160a01b031681565b6101226106a1565b60008061024f836104c2565b61026190670de0b6b3a76400006108d7565b905062015180600061027382846108b7565b6001600160a01b03861660009081526020819052604081205491925090670de0b6b3a7640000906102a59084906108d7565b6102af91906108b7565b9695505050505050565b600580546102c69061090d565b80601f01602080910402602001604051908101604052809291908181526020018280546102f29061090d565b801561033f5780601f106103145761010080835404028352916020019161033f565b820191906000526020600020905b81548152906001019060200180831161032257829003601f168201915b505050505081565b33600090815260208181526040808320546001909252909120805460ff19169183111591821790556103b55760405162461bcd60e51b81526020600482015260126024820152714e6f7468696e6720746f20756e7374616b6560701b60448201526064015b60405180910390fd5b60006103c033610243565b336000908152602081905260408120805492935084929091906103e49084906108f6565b909155505060065460405163a9059cbb60e01b8152336004820152602481018490526001600160a01b039091169063a9059cbb90604401602060405180830381600087803b15801561043557600080fd5b505af1158015610449573d6000803e3d6000fd5b505050506040513d601f19601f8201168201806040525081019061046d91906107fc565b50336000908152600460205260408120805483929061048d90849061089f565b9091555050336000908152602081905260409020546104be57336000908152600160205260409020805460ff191690555b5050565b6001600160a01b038116600090815260026020526040812054429082906104e990836108f6565b949350505050565b60008111801561057a57506006546040516370a0823160e01b815233600482015282916001600160a01b0316906370a082319060240160206040518083038186803b15801561053f57600080fd5b505afa158015610553573d6000803e3d6000fd5b505050506040513d601f19601f820116820180604052508101906105779190610834565b10155b6105c65760405162461bcd60e51b815260206004820152601c60248201527f596f752063616e6e6f74207374616b65207a65726f20746f6b656e730000000060448201526064016103ac565b6006546040516323b872dd60e01b8152336004820152306024820152604481018390526001600160a01b03909116906323b872dd90606401602060405180830381600087803b15801561061857600080fd5b505af115801561062c573d6000803e3d6000fd5b505050506040513d601f19601f8201168201806040525081019061065091906107fc565b50336000908152602081905260408120805483929061067090849061089f565b9091555050336000908152600260209081526040808320429055600191829052909120805460ff1916909117905550565b336000908152600360205260409020541515806106cd5750336000908152600260205260409020544214155b61070f5760405162461bcd60e51b81526020600482015260136024820152724e6f7468696e6720746f20776974686472617760681b60448201526064016103ac565b600061071a33610243565b3360009081526004602052604090205490915015610754573360009081526004602052604081208054919055610750818361089f565b9150505b336000818152600260205260409081902042905560075490516340c10f1960e01b81526004810192909252602482018390526001600160a01b0316906340c10f1990604401600060405180830381600087803b1580156107b357600080fd5b505af11580156107c7573d6000803e3d6000fd5b5050505050565b6000602082840312156107df578081fd5b81356001600160a01b03811681146107f5578182fd5b9392505050565b60006020828403121561080d578081fd5b815180151581146107f5578182fd5b60006020828403121561082d578081fd5b5035919050565b600060208284031215610845578081fd5b5051919050565b6000602080835283518082850152825b818110156108785785810183015185820160400152820161085c565b818111156108895783604083870101525b50601f01601f1916929092016040019392505050565b600082198211156108b2576108b2610948565b500190565b6000826108d257634e487b7160e01b81526012600452602481fd5b500490565b60008160001904831182151516156108f1576108f1610948565b500290565b60008282101561090857610908610948565b500390565b600181811c9082168061092157607f821691505b6020821081141561094257634e487b7160e01b600052602260045260246000fd5b50919050565b634e487b7160e01b600052601160045260246000fdfea264697066735822122060b733008ec3b7ed7d79a4ce70b034c7eef4c2983ceff75b1063068c8cd886c764736f6c63430008040033",
  "linkReferences": {},
  "deployedLinkReferences": {}
}