{
    "_format": "hh-sol-artifact-1",
    "contractName": "PmknFarm",
    "sourceName": "contracts/PmknFarm.sol",
    "abi": [
        {
            "inputs": [
                {
                    "internalType": "contract IERC20",
                    "name": "_daiToken",
                    "type": "address"
                },
                {
                    "internalType": "contract PmknToken",
                    "name": "_pmknToken",
                    "type": "address"
                },
                {
                    "internalType": "contract JackOLantern",
                    "name": "_jackOLantern",
                    "type": "address"
                },
                {
                    "internalType": "contract Lottery",
                    "name": "_lottery",
                    "type": "address"
                },
                {
                    "internalType": "uint256",
                    "name": "_nftPrice",
                    "type": "uint256"
                }
            ],
            "stateMutability": "nonpayable",
            "type": "constructor"
        },
        {
            "anonymous": false,
            "inputs": [
                {
                    "indexed": true,
                    "internalType": "address",
                    "name": "to",
                    "type": "address"
                },
                {
                    "indexed": true,
                    "internalType": "uint256",
                    "name": "tokenId",
                    "type": "uint256"
                }
            ],
            "name": "MintNFT",
            "type": "event"
        },
        {
            "anonymous": false,
            "inputs": [
                {
                    "indexed": true,
                    "internalType": "address",
                    "name": "from",
                    "type": "address"
                },
                {
                    "indexed": false,
                    "internalType": "uint256",
                    "name": "amount",
                    "type": "uint256"
                }
            ],
            "name": "Stake",
            "type": "event"
        },
        {
            "anonymous": false,
            "inputs": [
                {
                    "indexed": true,
                    "internalType": "address",
                    "name": "from",
                    "type": "address"
                },
                {
                    "indexed": false,
                    "internalType": "uint256",
                    "name": "amount",
                    "type": "uint256"
                }
            ],
            "name": "Unstake",
            "type": "event"
        },
        {
            "anonymous": false,
            "inputs": [
                {
                    "indexed": true,
                    "internalType": "address",
                    "name": "to",
                    "type": "address"
                },
                {
                    "indexed": false,
                    "internalType": "uint256",
                    "name": "amount",
                    "type": "uint256"
                }
            ],
            "name": "YieldWithdraw",
            "type": "event"
        },
        {
            "inputs": [
                {
                    "internalType": "address",
                    "name": "user",
                    "type": "address"
                }
            ],
            "name": "calculateYieldTime",
            "outputs": [
                {
                    "internalType": "uint256",
                    "name": "",
                    "type": "uint256"
                }
            ],
            "stateMutability": "view",
            "type": "function"
        },
        {
            "inputs": [
                {
                    "internalType": "address",
                    "name": "user",
                    "type": "address"
                }
            ],
            "name": "calculateYieldTotal",
            "outputs": [
                {
                    "internalType": "uint256",
                    "name": "",
                    "type": "uint256"
                }
            ],
            "stateMutability": "view",
            "type": "function"
        },
        {
            "inputs": [],
            "name": "daiToken",
            "outputs": [
                {
                    "internalType": "contract IERC20",
                    "name": "",
                    "type": "address"
                }
            ],
            "stateMutability": "view",
            "type": "function"
        },
        {
            "inputs": [
                {
                    "internalType": "address",
                    "name": "",
                    "type": "address"
                }
            ],
            "name": "isStaking",
            "outputs": [
                {
                    "internalType": "bool",
                    "name": "",
                    "type": "bool"
                }
            ],
            "stateMutability": "view",
            "type": "function"
        },
        {
            "inputs": [],
            "name": "jackOLantern",
            "outputs": [
                {
                    "internalType": "contract JackOLantern",
                    "name": "",
                    "type": "address"
                }
            ],
            "stateMutability": "view",
            "type": "function"
        },
        {
            "inputs": [],
            "name": "lottery",
            "outputs": [
                {
                    "internalType": "contract Lottery",
                    "name": "",
                    "type": "address"
                }
            ],
            "stateMutability": "view",
            "type": "function"
        },
        {
            "inputs": [
                {
                    "internalType": "address",
                    "name": "user",
                    "type": "address"
                },
                {
                    "internalType": "string",
                    "name": "tokenURI",
                    "type": "string"
                }
            ],
            "name": "mintNFT",
            "outputs": [],
            "stateMutability": "nonpayable",
            "type": "function"
        },
        {
            "inputs": [],
            "name": "name",
            "outputs": [
                {
                    "internalType": "string",
                    "name": "",
                    "type": "string"
                }
            ],
            "stateMutability": "view",
            "type": "function"
        },
        {
            "inputs": [
                {
                    "internalType": "string",
                    "name": "",
                    "type": "string"
                }
            ],
            "name": "nftCount",
            "outputs": [
                {
                    "internalType": "uint256",
                    "name": "",
                    "type": "uint256"
                }
            ],
            "stateMutability": "view",
            "type": "function"
        },
        {
            "inputs": [
                {
                    "internalType": "address",
                    "name": "",
                    "type": "address"
                }
            ],
            "name": "pmknBalance",
            "outputs": [
                {
                    "internalType": "uint256",
                    "name": "",
                    "type": "uint256"
                }
            ],
            "stateMutability": "view",
            "type": "function"
        },
        {
            "inputs": [],
            "name": "pmknToken",
            "outputs": [
                {
                    "internalType": "contract PmknToken",
                    "name": "",
                    "type": "address"
                }
            ],
            "stateMutability": "view",
            "type": "function"
        },
        {
            "inputs": [
                {
                    "internalType": "uint256",
                    "name": "amount",
                    "type": "uint256"
                }
            ],
            "name": "stake",
            "outputs": [],
            "stateMutability": "nonpayable",
            "type": "function"
        },
        {
            "inputs": [
                {
                    "internalType": "address",
                    "name": "",
                    "type": "address"
                }
            ],
            "name": "stakingBalance",
            "outputs": [
                {
                    "internalType": "uint256",
                    "name": "",
                    "type": "uint256"
                }
            ],
            "stateMutability": "view",
            "type": "function"
        },
        {
            "inputs": [
                {
                    "internalType": "address",
                    "name": "",
                    "type": "address"
                }
            ],
            "name": "startTime",
            "outputs": [
                {
                    "internalType": "uint256",
                    "name": "",
                    "type": "uint256"
                }
            ],
            "stateMutability": "view",
            "type": "function"
        },
        {
            "inputs": [
                {
                    "internalType": "uint256",
                    "name": "amount",
                    "type": "uint256"
                }
            ],
            "name": "unstake",
            "outputs": [],
            "stateMutability": "nonpayable",
            "type": "function"
        },
        {
            "inputs": [],
            "name": "withdrawYield",
            "outputs": [],
            "stateMutability": "nonpayable",
            "type": "function"
        }
    ],
    "bytecode": "0x60c06040526009608081905268506d6b6e204661726d60b81b60a09081526200002c9160059190620000b4565b503480156200003a57600080fd5b50604051620010cd380380620010cd8339810160408190526200005d916200015a565b600680546001600160a01b03199081166001600160a01b03978816179091556007805482169587169590951790945560088054851693861693909317909255600980549093169316929092179055600a5562000223565b828054620000c290620001cd565b90600052602060002090601f016020900481019282620000e6576000855562000131565b82601f106200010157805160ff191683800117855562000131565b8280016001018555821562000131579182015b828111156200013157825182559160200191906001019062000114565b506200013f92915062000143565b5090565b5b808211156200013f576000815560010162000144565b600080600080600060a0868803121562000172578081fd5b85516200017f816200020a565b602087015190955062000192816200020a565b6040870151909450620001a5816200020a565b6060870151909350620001b8816200020a565b80925050608086015190509295509295909350565b600181811c90821680620001e257607f821691505b602082108114156200020457634e487b7160e01b600052602260045260246000fd5b50919050565b6001600160a01b03811681146200022057600080fd5b50565b610e9a80620002336000396000f3fe608060405234801561001057600080fd5b50600436106101005760003560e01c8063980d611611610097578063e0704fe311610066578063e0704fe314610277578063e370115f1461028a578063e507a8a41461029d578063eacabe14146102a557600080fd5b8063980d611614610213578063a694fc3a14610226578063ba13a57214610239578063be22f5461461026457600080fd5b8063518ea824116100d3578063518ea824146101755780636e1dc66e146101a05780636f49712b146101c0578063828bee59146101f357600080fd5b8063068726611461010557806306fdde031461012b5780632e17de781461014057806345bc78ab14610155575b600080fd5b610118610113366004610bd5565b6102b8565b6040519081526020015b60405180910390f35b61013361032e565b6040516101229190610d31565b61015361014e366004610c95565b6103bc565b005b610118610163366004610bd5565b60006020819052908152604090205481565b610118610183366004610c62565b805160208183018101805160048252928201919093012091525481565b6101186101ae366004610bd5565b60026020526000908152604090205481565b6101e36101ce366004610bd5565b60016020526000908152604090205460ff1681565b6040519015158152602001610122565b610118610201366004610bd5565b60036020526000908152604090205481565b610118610221366004610bd5565b61056e565b610153610234366004610c95565b61059d565b60095461024c906001600160a01b031681565b6040516001600160a01b039091168152602001610122565b60065461024c906001600160a01b031681565b60075461024c906001600160a01b031681565b60085461024c906001600160a01b031681565b6101536107d3565b6101536102b3366004610bf6565b61091f565b6000806102c48361056e565b6102d690670de0b6b3a7640000610d7c565b90506201518060006102e88284610d5c565b6001600160a01b03861660009081526020819052604081205491925090670de0b6b3a76400009061031a908490610d7c565b6103249190610d5c565b9695505050505050565b6005805461033b90610de2565b80601f016020809104026020016040519081016040528092919081815260200182805461036790610de2565b80156103b45780601f10610389576101008083540402835291602001916103b4565b820191906000526020600020905b81548152906001019060200180831161039757829003601f168201915b505050505081565b33600090815260208181526040808320546001909252909120805460ff191691831115918217905561042a5760405162461bcd60e51b81526020600482015260126024820152714e6f7468696e6720746f20756e7374616b6560701b60448201526064015b60405180910390fd5b6000610435336102b8565b336000908152602081905260408120805491949293508291859061045a908490610d9b565b909155505060065460405163a9059cbb60e01b8152336004820152602481018390526001600160a01b039091169063a9059cbb90604401602060405180830381600087803b1580156104ab57600080fd5b505af11580156104bf573d6000803e3d6000fd5b505050506040513d601f19601f820116820180604052508101906104e39190610c42565b503360009081526003602052604081208054849290610503908490610d44565b90915550503360009081526020819052604090205461053457336000908152600160205260409020805460ff191690555b60405181815233907f85082129d87b2fe11527cb1b3b7a520aeb5aa6913f88a3d8757fe40d1db02fdd9060200160405180910390a2505050565b6001600160a01b038116600090815260026020526040812054429082906105959083610d9b565b949350505050565b60008111801561062657506006546040516370a0823160e01b815233600482015282916001600160a01b0316906370a082319060240160206040518083038186803b1580156105eb57600080fd5b505afa1580156105ff573d6000803e3d6000fd5b505050506040513d601f19601f820116820180604052508101906106239190610cad565b10155b6106725760405162461bcd60e51b815260206004820152601c60248201527f596f752063616e6e6f74207374616b65207a65726f20746f6b656e73000000006044820152606401610421565b3360009081526001602081905260409091205460ff16151514156106c657600061069b336102b8565b336000908152600360205260408120805492935083929091906106bf908490610d44565b9091555050505b6006546040516323b872dd60e01b8152336004820152306024820152604481018390526001600160a01b03909116906323b872dd90606401602060405180830381600087803b15801561071857600080fd5b505af115801561072c573d6000803e3d6000fd5b505050506040513d601f19601f820116820180604052508101906107509190610c42565b503360009081526020819052604081208054839290610770908490610d44565b9091555050336000818152600260209081526040808320429055600180835292819020805460ff191690931790925590518381527febedb8b3c678666e7f36970bc8f57abf6d8fa2e828c0da91ea5b75bf68ed101a91015b60405180910390a250565b60006107de336102b8565b905060008111806107fd57503360009081526003602052604090205415155b61083f5760405162461bcd60e51b81526020600482015260136024820152724e6f7468696e6720746f20776974686472617760681b6044820152606401610421565b33600090815260036020526040902054156108765733600090815260036020526040812080549190556108728183610d44565b9150505b336000818152600260205260409081902042905560075490516340c10f1960e01b81526004810192909252602482018390526001600160a01b0316906340c10f1990604401600060405180830381600087803b1580156108d557600080fd5b505af11580156108e9573d6000803e3d6000fd5b50506040518381523392507f92044e3943309ee5950e21bc7421d02c1df75f0df33c0d97c1143687b49a4c5791506020016107c8565b600a546007546040516370a0823160e01b81523360048201526001600160a01b03909116906370a082319060240160206040518083038186803b15801561096557600080fd5b505afa158015610979573d6000803e3d6000fd5b505050506040513d601f19601f8201168201806040525081019061099d9190610cad565b10156109dd5760405162461bcd60e51b815260206004820152600f60248201526e2737ba1032b737bab3b4102826a5a760891b6044820152606401610421565b600954600a54604051632bb8a61f60e11b815233600482015260248101919091526001600160a01b03909116906357714c3e90604401600060405180830381600087803b158015610a2d57600080fd5b505af1158015610a41573d6000803e3d6000fd5b505060085460405163110bcd4560e01b8152600093506001600160a01b03909116915063110bcd4590610a7a9086908690600401610d0d565b602060405180830381600087803b158015610a9457600080fd5b505af1158015610aa8573d6000803e3d6000fd5b505050506040513d601f19601f82011682018060405250810190610acc9190610cad565b9050600482604051610ade9190610cf1565b9081526040519081900360200190208054906000610afb83610e1d565b9091555050604051819033907f1f89f147a58d1673945cf416187db98efc8208408c011b91887acd59fd8523c390600090a3505050565b80356001600160a01b0381168114610b4957600080fd5b919050565b600082601f830112610b5e578081fd5b813567ffffffffffffffff80821115610b7957610b79610e4e565b604051601f8301601f19908116603f01168101908282118183101715610ba157610ba1610e4e565b81604052838152866020858801011115610bb9578485fd5b8360208701602083013792830160200193909352509392505050565b600060208284031215610be6578081fd5b610bef82610b32565b9392505050565b60008060408385031215610c08578081fd5b610c1183610b32565b9150602083013567ffffffffffffffff811115610c2c578182fd5b610c3885828601610b4e565b9150509250929050565b600060208284031215610c53578081fd5b81518015158114610bef578182fd5b600060208284031215610c73578081fd5b813567ffffffffffffffff811115610c89578182fd5b61059584828501610b4e565b600060208284031215610ca6578081fd5b5035919050565b600060208284031215610cbe578081fd5b5051919050565b60008151808452610cdd816020860160208601610db2565b601f01601f19169290920160200192915050565b60008251610d03818460208701610db2565b9190910192915050565b6001600160a01b038316815260406020820181905260009061059590830184610cc5565b602081526000610bef6020830184610cc5565b60008219821115610d5757610d57610e38565b500190565b600082610d7757634e487b7160e01b81526012600452602481fd5b500490565b6000816000190483118215151615610d9657610d96610e38565b500290565b600082821015610dad57610dad610e38565b500390565b60005b83811015610dcd578181015183820152602001610db5565b83811115610ddc576000848401525b50505050565b600181811c90821680610df657607f821691505b60208210811415610e1757634e487b7160e01b600052602260045260246000fd5b50919050565b6000600019821415610e3157610e31610e38565b5060010190565b634e487b7160e01b600052601160045260246000fd5b634e487b7160e01b600052604160045260246000fdfea26469706673582212201406563ea85ae0dfd9508d0b694c097b29d25a6aab1d1e1e7d970eb815115dde64736f6c63430008040033",
    "linkReferences": {},
    "deployedLinkReferences": {}
}