{
    "_format": "hh-sol-artifact-1",
    "contractName": "PmknFarm",
    "sourceName": "contracts/PmknFarm.sol",
    "abi": [
        {
            "inputs": [
                {
                    "internalType": "contract IERC20",
                    "name": "_daiToken",
                    "type": "address"
                },
                {
                    "internalType": "contract PmknToken",
                    "name": "_pmknToken",
                    "type": "address"
                }
            ],
            "stateMutability": "nonpayable",
            "type": "constructor"
        },
        {
            "inputs": [
                {
                    "internalType": "address",
                    "name": "user",
                    "type": "address"
                }
            ],
            "name": "calculateYieldTime",
            "outputs": [
                {
                    "internalType": "uint256",
                    "name": "",
                    "type": "uint256"
                }
            ],
            "stateMutability": "view",
            "type": "function"
        },
        {
            "inputs": [
                {
                    "internalType": "address",
                    "name": "user",
                    "type": "address"
                }
            ],
            "name": "calculateYieldTotal",
            "outputs": [
                {
                    "internalType": "uint256",
                    "name": "",
                    "type": "uint256"
                }
            ],
            "stateMutability": "view",
            "type": "function"
        },
        {
            "inputs": [],
            "name": "daiToken",
            "outputs": [
                {
                    "internalType": "contract IERC20",
                    "name": "",
                    "type": "address"
                }
            ],
            "stateMutability": "view",
            "type": "function"
        },
        {
            "inputs": [
                {
                    "internalType": "address",
                    "name": "",
                    "type": "address"
                }
            ],
            "name": "isStaking",
            "outputs": [
                {
                    "internalType": "bool",
                    "name": "",
                    "type": "bool"
                }
            ],
            "stateMutability": "view",
            "type": "function"
        },
        {
            "inputs": [],
            "name": "name",
            "outputs": [
                {
                    "internalType": "string",
                    "name": "",
                    "type": "string"
                }
            ],
            "stateMutability": "view",
            "type": "function"
        },
        {
            "inputs": [
                {
                    "internalType": "address",
                    "name": "",
                    "type": "address"
                }
            ],
            "name": "pmknBalance",
            "outputs": [
                {
                    "internalType": "uint256",
                    "name": "",
                    "type": "uint256"
                }
            ],
            "stateMutability": "view",
            "type": "function"
        },
        {
            "inputs": [],
            "name": "pmknToken",
            "outputs": [
                {
                    "internalType": "contract PmknToken",
                    "name": "",
                    "type": "address"
                }
            ],
            "stateMutability": "view",
            "type": "function"
        },
        {
            "inputs": [
                {
                    "internalType": "uint256",
                    "name": "amount",
                    "type": "uint256"
                }
            ],
            "name": "stake",
            "outputs": [],
            "stateMutability": "nonpayable",
            "type": "function"
        },
        {
            "inputs": [
                {
                    "internalType": "address",
                    "name": "",
                    "type": "address"
                }
            ],
            "name": "stakingBalance",
            "outputs": [
                {
                    "internalType": "uint256",
                    "name": "",
                    "type": "uint256"
                }
            ],
            "stateMutability": "view",
            "type": "function"
        },
        {
            "inputs": [
                {
                    "internalType": "address",
                    "name": "",
                    "type": "address"
                }
            ],
            "name": "startTime",
            "outputs": [
                {
                    "internalType": "uint256",
                    "name": "",
                    "type": "uint256"
                }
            ],
            "stateMutability": "view",
            "type": "function"
        },
        {
            "inputs": [],
            "name": "unstake",
            "outputs": [],
            "stateMutability": "nonpayable",
            "type": "function"
        },
        {
            "inputs": [],
            "name": "withdrawYield",
            "outputs": [],
            "stateMutability": "nonpayable",
            "type": "function"
        }
    ],
    "bytecode": "0x60c06040526009608081905268506d6b6e204661726d60b81b60a090815261002a9160009190610089565b5034801561003757600080fd5b5060405162000ae238038062000ae283398101604081905261005891610122565b600180546001600160a01b039384166001600160a01b031991821617909155600280549290931691161790556101ae565b8280546100959061015b565b90600052602060002090601f0160209004810192826100b757600085556100fd565b82601f106100d057805160ff19168380011785556100fd565b828001600101855582156100fd579182015b828111156100fd5782518255916020019190600101906100e2565b5061010992915061010d565b5090565b5b80821115610109576000815560010161010e565b60008060408385031215610134578182fd5b825161013f81610196565b602084015190925061015081610196565b809150509250929050565b600181811c9082168061016f57607f821691505b6020821081141561019057634e487b7160e01b600052602260045260246000fd5b50919050565b6001600160a01b03811681146101ab57600080fd5b50565b61092480620001be6000396000f3fe608060405234801561001057600080fd5b50600436106100b45760003560e01c8063828bee5911610071578063828bee5914610171578063980d611614610191578063a694fc3a146101a4578063be22f546146101b7578063e0704fe3146101e2578063e507a8a4146101f557600080fd5b806306872661146100b957806306fdde03146100df5780632def6620146100f457806345bc78ab146100fe5780636e1dc66e1461011e5780636f49712b1461013e575b600080fd5b6100cc6100c736600461075e565b6101fd565b6040519081526020015b60405180910390f35b6100e761026a565b6040516100d691906107dc565b6100fc6102f8565b005b6100cc61010c36600461075e565b60036020526000908152604090205481565b6100cc61012c36600461075e565b60056020526000908152604090205481565b61016161014c36600461075e565b60046020526000908152604090205460ff1681565b60405190151581526020016100d6565b6100cc61017f36600461075e565b60066020526000908152604090205481565b6100cc61019f36600461075e565b610401565b6100fc6101b23660046107ac565b610430565b6001546101ca906001600160a01b031681565b6040516001600160a01b0390911681526020016100d6565b6002546101ca906001600160a01b031681565b6100fc610631565b60008061020983610401565b61021b90670de0b6b3a7640000610867565b905062015180600061022d8284610847565b3360009081526003602052604081205491925090670de0b6b3a764000090610256908490610867565b6102609190610847565b9695505050505050565b600080546102779061089d565b80601f01602080910402602001604051908101604052809291908181526020018280546102a39061089d565b80156102f05780601f106102c5576101008083540402835291602001916102f0565b820191906000526020600020905b8154815290600101906020018083116102d357829003601f168201915b505050505081565b336000908152600360205260409020548061034f5760405162461bcd60e51b81526020600482015260126024820152714e6f7468696e6720746f20756e7374616b6560701b60448201526064015b60405180910390fd5b3360008181526003602052604080822091909155600154905163a9059cbb60e01b81526004810192909252602482018390526001600160a01b03169063a9059cbb90604401602060405180830381600087803b1580156103ae57600080fd5b505af11580156103c2573d6000803e3d6000fd5b505050506040513d601f19601f820116820180604052508101906103e6919061078c565b5050336000908152600460205260409020805460ff19169055565b6001600160a01b038116600090815260056020526040812054429082906104289083610886565b949350505050565b6000811180156104b957506001546040516370a0823160e01b815233600482015282916001600160a01b0316906370a082319060240160206040518083038186803b15801561047e57600080fd5b505afa158015610492573d6000803e3d6000fd5b505050506040513d601f19601f820116820180604052508101906104b691906107c4565b10155b6105055760405162461bcd60e51b815260206004820152601c60248201527f596f752063616e6e6f74207374616b65207a65726f20746f6b656e73000000006044820152606401610346565b336000908152600360205260409020541561055857610523336101fd565b336000908152600660205260408120805490919061054290849061082f565b9091555050336000908152600360205260408120555b6001546040516323b872dd60e01b8152336004820152306024820152604481018390526001600160a01b03909116906323b872dd90606401602060405180830381600087803b1580156105aa57600080fd5b505af11580156105be573d6000803e3d6000fd5b505050506040513d601f19601f820116820180604052508101906105e2919061078c565b50336000908152600360205260408120805483929061060290849061082f565b909155505033600090815260056020908152604080832042905560049091529020805460ff1916600117905550565b3360009081526006602052604090205415158061065d5750336000908152600560205260409020544214155b61069f5760405162461bcd60e51b81526020600482015260136024820152724e6f7468696e6720746f20776974686472617760681b6044820152606401610346565b60006106aa336101fd565b33600090815260066020526040902054909150156106e45733600090815260066020526040812080549190556106e0818361082f565b9150505b336000818152600560205260409081902042905560025490516340c10f1960e01b81526004810192909252602482018390526001600160a01b0316906340c10f1990604401600060405180830381600087803b15801561074357600080fd5b505af1158015610757573d6000803e3d6000fd5b5050505050565b60006020828403121561076f578081fd5b81356001600160a01b0381168114610785578182fd5b9392505050565b60006020828403121561079d578081fd5b81518015158114610785578182fd5b6000602082840312156107bd578081fd5b5035919050565b6000602082840312156107d5578081fd5b5051919050565b6000602080835283518082850152825b81811015610808578581018301518582016040015282016107ec565b818111156108195783604083870101525b50601f01601f1916929092016040019392505050565b60008219821115610842576108426108d8565b500190565b60008261086257634e487b7160e01b81526012600452602481fd5b500490565b6000816000190483118215151615610881576108816108d8565b500290565b600082821015610898576108986108d8565b500390565b600181811c908216806108b157607f821691505b602082108114156108d257634e487b7160e01b600052602260045260246000fd5b50919050565b634e487b7160e01b600052601160045260246000fdfea2646970667358221220af35fa136929092013fd261f8c57c84831b5b6ebdc56a6c5895084d7d851a63a64736f6c63430008040033",
    "linkReferences": {},
    "deployedLinkReferences": {}
}